{
  "transactions": [
    {
      "hash": "0x8f0c1d119e76cfe71e5427136aceaff98145a5531b2361f1c429eb00dcf7bb10",
      "transactionType": "CREATE",
      "contractName": "Fundify",
      "contractAddress": "0x5fbdb2315678afecb367f032d93f642f64180aa3",
      "function": null,
      "arguments": null,
      "transaction": {
        "from": "0xf39fd6e51aad88f6f4ce6ab8827279cfffb92266",
        "gas": "0x23bc3a",
        "value": "0x0",
        "input": "0x60a06040523073ffffffffffffffffffffffffffffffffffffffff1660809073ffffffffffffffffffffffffffffffffffffffff168152503480156041575f5ffd5b50608051611fc16100685f395f8181610f2301528181610f7801526111320152611fc15ff3fe6080604052600436106100dc575f3560e01c8063715018a61161007e5780638da5cb5b116100585780638da5cb5b1461028d578063ad3cb1cc146102b7578063f16fd392146102e1578063f2fde38b146102fd576100dc565b8063715018a6146102205780637ecdd3c5146102365780638129fc1c14610277576100dc565b80634f1ef286116100ba5780634f1ef2861461016257806352d1902d1461017e5780636608f47c146101a85780636e4e2df7146101e4576100dc565b806302da667b146100e05780633e6d9770146101085780634491629b14610146575b5f5ffd5b3480156100eb575f5ffd5b50610106600480360381019061010191906117e0565b610325565b005b348015610113575f5ffd5b5061012e60048036038101906101299190611878565b6104f8565b60405161013d939291906118d4565b60405180910390f35b610160600480360381019061015b9190611878565b610548565b005b61017c60048036038101906101779190611a45565b6108ad565b005b348015610189575f5ffd5b506101926108cc565b60405161019f9190611ab7565b60405180910390f35b3480156101b3575f5ffd5b506101ce60048036038101906101c99190611ad0565b6108fd565b6040516101db9190611afb565b60405180910390f35b3480156101ef575f5ffd5b5061020a60048036038101906102059190611ad0565b610912565b6040516102179190611afb565b60405180910390f35b34801561022b575f5ffd5b50610234610927565b005b348015610241575f5ffd5b5061025c60048036038101906102579190611878565b61093a565b60405161026e96959493929190611b14565b60405180910390f35b348015610282575f5ffd5b5061028b61099b565b005b348015610298575f5ffd5b506102a1610b23565b6040516102ae9190611b73565b60405180910390f35b3480156102c2575f5ffd5b506102cb610b58565b6040516102d89190611bec565b60405180910390f35b6102fb60048036038101906102f69190611c0c565b610b91565b005b348015610308575f5ffd5b50610323600480360381019061031e9190611ad0565b610e9d565b005b5f820361035e576040517fdf58725600000000000000000000000000000000000000000000000000000000815260040160405180910390fd5b5f81148061036c5750600581115b156103a3576040517f2e54973a00000000000000000000000000000000000000000000000000000000815260040160405180910390fd5b5f60015f3373ffffffffffffffffffffffffffffffffffffffff1673ffffffffffffffffffffffffffffffffffffffff1681526020019081526020015f205f8154809291906103f190611c89565b9190505590505f5f5f3373ffffffffffffffffffffffffffffffffffffffff1673ffffffffffffffffffffffffffffffffffffffff1681526020019081526020015f205f8381526020019081526020015f20905033815f015f6101000a81548173ffffffffffffffffffffffffffffffffffffffff021916908373ffffffffffffffffffffffffffffffffffffffff1602179055508181600101819055508381600201819055508281600301819055505f81600401819055505f81600501819055507f18bb2539629584aae5f6a7a5944b5a92a9161f09110eada6dc02e5de825a7f2f33838686426040516104ea959493929190611cd0565b60405180910390a150505050565b6002602052815f5260405f20602052805f5260405f205f9150915050805f015f9054906101000a900473ffffffffffffffffffffffffffffffffffffffff16908060010154908060020154905083565b5f73ffffffffffffffffffffffffffffffffffffffff168273ffffffffffffffffffffffffffffffffffffffff16036105ad576040517f4866b43f00000000000000000000000000000000000000000000000000000000815260040160405180910390fd5b6001816105ba9190611d21565b60015f8473ffffffffffffffffffffffffffffffffffffffff1673ffffffffffffffffffffffffffffffffffffffff1681526020019081526020015f20541015610630576040517f0c411ba700000000000000000000000000000000000000000000000000000000815260040160405180910390fd5b5f3403610669576040517fbb21bfd400000000000000000000000000000000000000000000000000000000815260040160405180910390fd5b5f5f5f8473ffffffffffffffffffffffffffffffffffffffff1673ffffffffffffffffffffffffffffffffffffffff1681526020019081526020015f205f8381526020019081526020015f2090505f816004015482600201546106cc9190611d54565b03610703576040517fb946329700000000000000000000000000000000000000000000000000000000815260040160405180910390fd5b5f3482600401546107149190611d21565b90508160020154811115610754576040517fa589377400000000000000000000000000000000000000000000000000000000815260040160405180910390fd5b5f60035f3373ffffffffffffffffffffffffffffffffffffffff1673ffffffffffffffffffffffffffffffffffffffff1681526020019081526020015f205f8154809291906107a290611c89565b9190505590505f60025f3373ffffffffffffffffffffffffffffffffffffffff1673ffffffffffffffffffffffffffffffffffffffff1681526020019081526020015f205f8381526020019081526020015f20905085815f015f6101000a81548173ffffffffffffffffffffffffffffffffffffffff021916908373ffffffffffffffffffffffffffffffffffffffff16021790555084816001018190555034816002015f8282546108549190611d21565b925050819055508284600401819055507f6018ad64562efd93d22d748684bd9aab8870d294413f37b6bfdca1b8cab1fd0633833489894260405161089d96959493929190611d87565b60405180910390a1505050505050565b6108b5610f21565b6108be82611007565b6108c88282611012565b5050565b5f6108d5611130565b7f360894a13ba1a3210667c828492db98dca3e2076cc3735a920a3ca505d382bbc5f1b905090565b6001602052805f5260405f205f915090505481565b6003602052805f5260405f205f915090505481565b61092f6111b7565b6109385f61123e565b565b5f602052815f5260405f20602052805f5260405f205f9150915050805f015f9054906101000a900473ffffffffffffffffffffffffffffffffffffffff16908060010154908060020154908060030154908060040154908060050154905086565b5f6109a461130f565b90505f815f0160089054906101000a900460ff161590505f825f015f9054906101000a900467ffffffffffffffff1690505f5f8267ffffffffffffffff161480156109ec5750825b90505f60018367ffffffffffffffff16148015610a1f57505f3073ffffffffffffffffffffffffffffffffffffffff163b145b905081158015610a2d575080155b15610a64576040517ff92ee8a900000000000000000000000000000000000000000000000000000000815260040160405180910390fd5b6001855f015f6101000a81548167ffffffffffffffff021916908367ffffffffffffffff1602179055508315610ab1576001855f0160086101000a81548160ff0219169083151502179055505b610aba33611322565b610ac2611336565b8315610b1c575f855f0160086101000a81548160ff0219169083151502179055507fc7f505b2f371ae2175ee4913f4499e1f2633a7b5936321eed1cdaeb6115181d26001604051610b139190611e3b565b60405180910390a15b5050505050565b5f5f610b2d611340565b9050805f015f9054906101000a900473ffffffffffffffffffffffffffffffffffffffff1691505090565b6040518060400160405280600581526020017f352e302e3000000000000000000000000000000000000000000000000000000081525081565b5f8203610bca576040517fd7cece4200000000000000000000000000000000000000000000000000000000815260040160405180910390fd5b5f73ffffffffffffffffffffffffffffffffffffffff168173ffffffffffffffffffffffffffffffffffffffff1603610c2f576040517f4866b43f00000000000000000000000000000000000000000000000000000000815260040160405180910390fd5b600183610c3c9190611d21565b60015f3373ffffffffffffffffffffffffffffffffffffffff1673ffffffffffffffffffffffffffffffffffffffff1681526020019081526020015f20541015610cb2576040517f0c411ba700000000000000000000000000000000000000000000000000000000815260040160405180910390fd5b5f5f5f3373ffffffffffffffffffffffffffffffffffffffff1673ffffffffffffffffffffffffffffffffffffffff1681526020019081526020015f205f8581526020019081526020015f2090505f81600401548260020154610d159190611d54565b03610d4c576040517fb946329700000000000000000000000000000000000000000000000000000000815260040160405180910390fd5b5f81600501548260040154610d619190611d54565b905083811015610d9d576040517f7224d81200000000000000000000000000000000000000000000000000000000815260040160405180910390fd5b83826005015f828254610db09190611d21565b925050819055505f8373ffffffffffffffffffffffffffffffffffffffff1685604051610ddc90611e81565b5f6040518083038185875af1925050503d805f8114610e16576040519150601f19603f3d011682016040523d82523d5f602084013e610e1b565b606091505b5050905080610e56576040517f53a7326b00000000000000000000000000000000000000000000000000000000815260040160405180910390fd5b7f93473097f87d5e9d6b0720d7957a4c6e359bc4ad6e327261efd60d3801d8b6b13387878742604051610e8d959493929190611e95565b60405180910390a1505050505050565b610ea56111b7565b5f73ffffffffffffffffffffffffffffffffffffffff168173ffffffffffffffffffffffffffffffffffffffff1603610f15575f6040517f1e4fbdf7000000000000000000000000000000000000000000000000000000008152600401610f0c9190611b73565b60405180910390fd5b610f1e8161123e565b50565b7f000000000000000000000000000000000000000000000000000000000000000073ffffffffffffffffffffffffffffffffffffffff163073ffffffffffffffffffffffffffffffffffffffff161480610fce57507f000000000000000000000000000000000000000000000000000000000000000073ffffffffffffffffffffffffffffffffffffffff16610fb5611367565b73ffffffffffffffffffffffffffffffffffffffff1614155b15611005576040517fe07c8dba00000000000000000000000000000000000000000000000000000000815260040160405180910390fd5b565b61100f6111b7565b50565b8173ffffffffffffffffffffffffffffffffffffffff166352d1902d6040518163ffffffff1660e01b8152600401602060405180830381865afa92505050801561107a57506040513d601f19601f820116820180604052508101906110779190611f10565b60015b6110bb57816040517f4c9c8ce30000000000000000000000000000000000000000000000000000000081526004016110b29190611b73565b60405180910390fd5b7f360894a13ba1a3210667c828492db98dca3e2076cc3735a920a3ca505d382bbc5f1b811461112157806040517faa1d49a40000000000000000000000000000000000000000000000000000000081526004016111189190611ab7565b60405180910390fd5b61112b83836113ba565b505050565b7f000000000000000000000000000000000000000000000000000000000000000073ffffffffffffffffffffffffffffffffffffffff163073ffffffffffffffffffffffffffffffffffffffff16146111b5576040517fe07c8dba00000000000000000000000000000000000000000000000000000000815260040160405180910390fd5b565b6111bf61142c565b73ffffffffffffffffffffffffffffffffffffffff166111dd610b23565b73ffffffffffffffffffffffffffffffffffffffff161461123c5761120061142c565b6040517f118cdaa70000000000000000000000000000000000000000000000000000000081526004016112339190611b73565b60405180910390fd5b565b5f611247611340565b90505f815f015f9054906101000a900473ffffffffffffffffffffffffffffffffffffffff16905082825f015f6101000a81548173ffffffffffffffffffffffffffffffffffffffff021916908373ffffffffffffffffffffffffffffffffffffffff1602179055508273ffffffffffffffffffffffffffffffffffffffff168173ffffffffffffffffffffffffffffffffffffffff167f8be0079c531659141344cd1fd0a4f28419497f9722a3daafe3b4186f6b6457e060405160405180910390a3505050565b5f5f611319611433565b90508091505090565b61132a61145c565b6113338161149c565b50565b61133e61145c565b565b5f7f9016d09d72d40fdae2fd8ceac6b6234c7706214fd39c1cd1e609a0528c199300905090565b5f6113937f360894a13ba1a3210667c828492db98dca3e2076cc3735a920a3ca505d382bbc5f1b611520565b5f015f9054906101000a900473ffffffffffffffffffffffffffffffffffffffff16905090565b6113c382611529565b8173ffffffffffffffffffffffffffffffffffffffff167fbc7cd75a20ee27fd9adebab32041f755214dbc6bffa90cc0225b39da2e5c2d3b60405160405180910390a25f8151111561141f5761141982826115f2565b50611428565b611427611672565b5b5050565b5f33905090565b5f7ff0c57e16840df040f15088dc2f81fe391c3923bec73e23a9662efc9c229c6a005f1b905090565b6114646116ae565b61149a576040517fd7e6bcf800000000000000000000000000000000000000000000000000000000815260040160405180910390fd5b565b6114a461145c565b5f73ffffffffffffffffffffffffffffffffffffffff168173ffffffffffffffffffffffffffffffffffffffff1603611514575f6040517f1e4fbdf700000000000000000000000000000000000000000000000000000000815260040161150b9190611b73565b60405180910390fd5b61151d8161123e565b50565b5f819050919050565b5f8173ffffffffffffffffffffffffffffffffffffffff163b0361158457806040517f4c9c8ce300000000000000000000000000000000000000000000000000000000815260040161157b9190611b73565b60405180910390fd5b806115b07f360894a13ba1a3210667c828492db98dca3e2076cc3735a920a3ca505d382bbc5f1b611520565b5f015f6101000a81548173ffffffffffffffffffffffffffffffffffffffff021916908373ffffffffffffffffffffffffffffffffffffffff16021790555050565b60605f5f8473ffffffffffffffffffffffffffffffffffffffff168460405161161b9190611f75565b5f60405180830381855af49150503d805f8114611653576040519150601f19603f3d011682016040523d82523d5f602084013e611658565b606091505b50915091506116688583836116cc565b9250505092915050565b5f3411156116ac576040517fb398979f00000000000000000000000000000000000000000000000000000000815260040160405180910390fd5b565b5f6116b761130f565b5f0160089054906101000a900460ff16905090565b6060826116e1576116dc82611759565b611751565b5f825114801561170757505f8473ffffffffffffffffffffffffffffffffffffffff163b145b1561174957836040517f9996b3150000000000000000000000000000000000000000000000000000000081526004016117409190611b73565b60405180910390fd5b819050611752565b5b9392505050565b5f8151111561176a57805160208201fd5b6040517fd6bda27500000000000000000000000000000000000000000000000000000000815260040160405180910390fd5b5f604051905090565b5f5ffd5b5f5ffd5b5f819050919050565b6117bf816117ad565b81146117c9575f5ffd5b50565b5f813590506117da816117b6565b92915050565b5f5f604083850312156117f6576117f56117a5565b5b5f611803858286016117cc565b9250506020611814858286016117cc565b9150509250929050565b5f73ffffffffffffffffffffffffffffffffffffffff82169050919050565b5f6118478261181e565b9050919050565b6118578161183d565b8114611861575f5ffd5b50565b5f813590506118728161184e565b92915050565b5f5f6040838503121561188e5761188d6117a5565b5b5f61189b85828601611864565b92505060206118ac858286016117cc565b9150509250929050565b6118bf8161183d565b82525050565b6118ce816117ad565b82525050565b5f6060820190506118e75f8301866118b6565b6118f460208301856118c5565b61190160408301846118c5565b949350505050565b5f5ffd5b5f5ffd5b5f601f19601f8301169050919050565b7f4e487b71000000000000000000000000000000000000000000000000000000005f52604160045260245ffd5b61195782611911565b810181811067ffffffffffffffff8211171561197657611975611921565b5b80604052505050565b5f61198861179c565b9050611994828261194e565b919050565b5f67ffffffffffffffff8211156119b3576119b2611921565b5b6119bc82611911565b9050602081019050919050565b828183375f83830152505050565b5f6119e96119e484611999565b61197f565b905082815260208101848484011115611a0557611a0461190d565b5b611a108482856119c9565b509392505050565b5f82601f830112611a2c57611a2b611909565b5b8135611a3c8482602086016119d7565b91505092915050565b5f5f60408385031215611a5b57611a5a6117a5565b5b5f611a6885828601611864565b925050602083013567ffffffffffffffff811115611a8957611a886117a9565b5b611a9585828601611a18565b9150509250929050565b5f819050919050565b611ab181611a9f565b82525050565b5f602082019050611aca5f830184611aa8565b92915050565b5f60208284031215611ae557611ae46117a5565b5b5f611af284828501611864565b91505092915050565b5f602082019050611b0e5f8301846118c5565b92915050565b5f60c082019050611b275f8301896118b6565b611b3460208301886118c5565b611b4160408301876118c5565b611b4e60608301866118c5565b611b5b60808301856118c5565b611b6860a08301846118c5565b979650505050505050565b5f602082019050611b865f8301846118b6565b92915050565b5f81519050919050565b5f82825260208201905092915050565b8281835e5f83830152505050565b5f611bbe82611b8c565b611bc88185611b96565b9350611bd8818560208601611ba6565b611be181611911565b840191505092915050565b5f6020820190508181035f830152611c048184611bb4565b905092915050565b5f5f5f60608486031215611c2357611c226117a5565b5b5f611c30868287016117cc565b9350506020611c41868287016117cc565b9250506040611c5286828701611864565b9150509250925092565b7f4e487b71000000000000000000000000000000000000000000000000000000005f52601160045260245ffd5b5f611c93826117ad565b91507fffffffffffffffffffffffffffffffffffffffffffffffffffffffffffffffff8203611cc557611cc4611c5c565b5b600182019050919050565b5f60a082019050611ce35f8301886118b6565b611cf060208301876118c5565b611cfd60408301866118c5565b611d0a60608301856118c5565b611d1760808301846118c5565b9695505050505050565b5f611d2b826117ad565b9150611d36836117ad565b9250828201905080821115611d4e57611d4d611c5c565b5b92915050565b5f611d5e826117ad565b9150611d69836117ad565b9250828203905081811115611d8157611d80611c5c565b5b92915050565b5f60c082019050611d9a5f8301896118b6565b611da760208301886118c5565b611db460408301876118c5565b611dc160608301866118b6565b611dce60808301856118c5565b611ddb60a08301846118c5565b979650505050505050565b5f819050919050565b5f67ffffffffffffffff82169050919050565b5f819050919050565b5f611e25611e20611e1b84611de6565b611e02565b611def565b9050919050565b611e3581611e0b565b82525050565b5f602082019050611e4e5f830184611e2c565b92915050565b5f81905092915050565b50565b5f611e6c5f83611e54565b9150611e7782611e5e565b5f82019050919050565b5f611e8b82611e61565b9150819050919050565b5f60a082019050611ea85f8301886118b6565b611eb560208301876118c5565b611ec260408301866118c5565b611ecf60608301856118b6565b611edc60808301846118c5565b9695505050505050565b611eef81611a9f565b8114611ef9575f5ffd5b50565b5f81519050611f0a81611ee6565b92915050565b5f60208284031215611f2557611f246117a5565b5b5f611f3284828501611efc565b91505092915050565b5f81519050919050565b5f611f4f82611f3b565b611f598185611e54565b9350611f69818560208601611ba6565b80840191505092915050565b5f611f808284611f45565b91508190509291505056fea2646970667358221220172d82aeb3e77f3b703e204b59f94253a83f377be8ef9cffd151b525285ce20364736f6c634300081e0033",
        "nonce": "0x0",
        "chainId": "0x1"
      },
      "additionalContracts": [],
      "isFixedGasLimit": false
    },
    {
      "hash": "0x1a4adf5efad45e94f501862a9cf6bd4edec06461467edfc3241b0790677adcf1",
      "transactionType": "CALL",
      "contractName": "Fundify",
      "contractAddress": "0x5fbdb2315678afecb367f032d93f642f64180aa3",
      "function": "initialize()",
      "arguments": [],
      "transaction": {
        "from": "0xf39fd6e51aad88f6f4ce6ab8827279cfffb92266",
        "to": "0x5fbdb2315678afecb367f032d93f642f64180aa3",
        "gas": "0x17fe1",
        "value": "0x0",
        "input": "0x8129fc1c",
        "nonce": "0x1",
        "chainId": "0x1"
      },
      "additionalContracts": [],
      "isFixedGasLimit": false
    },
    {
      "hash": "0xb70e2cbb9af6a159bb0f4aa1c18059367efe7527aaa3010f6b4a3ea924713be4",
      "transactionType": "CALL",
      "contractName": "Fundify",
      "contractAddress": "0x5fbdb2315678afecb367f032d93f642f64180aa3",
      "function": "createProject(uint256,uint256)",
      "arguments": [
        "10000000000000000000",
        "2"
      ],
      "transaction": {
        "from": "0xf39fd6e51aad88f6f4ce6ab8827279cfffb92266",
        "to": "0x5fbdb2315678afecb367f032d93f642f64180aa3",
        "gas": "0x2af6e",
        "value": "0x0",
        "input": "0x02da667b0000000000000000000000000000000000000000000000008ac7230489e800000000000000000000000000000000000000000000000000000000000000000002",
        "nonce": "0x2",
        "chainId": "0x1"
      },
      "additionalContracts": [],
      "isFixedGasLimit": false
    },
    {
      "hash": "0x4c53b68918bd17db286466075340db2a7c3e3ec86b04190b0d2d736735f90616",
      "transactionType": "CALL",
      "contractName": "Fundify",
      "contractAddress": "0x5fbdb2315678afecb367f032d93f642f64180aa3",
      "function": "createProject(uint256,uint256)",
      "arguments": [
        "5000000000000000000",
        "3"
      ],
      "transaction": {
        "from": "0xf39fd6e51aad88f6f4ce6ab8827279cfffb92266",
        "to": "0x5fbdb2315678afecb367f032d93f642f64180aa3",
        "gas": "0x2bf6d",
        "value": "0x0",
        "input": "0x02da667b0000000000000000000000000000000000000000000000004563918244f400000000000000000000000000000000000000000000000000000000000000000003",
        "nonce": "0x3",
        "chainId": "0x1"
      },
      "additionalContracts": [],
      "isFixedGasLimit": false
    },
    {
      "hash": "0x9404e0c2975282d9d17b61155aec1fec8225e772abcf4f0bfec74e7c06bd5c2f",
      "transactionType": "CALL",
      "contractName": "Fundify",
      "contractAddress": "0x5fbdb2315678afecb367f032d93f642f64180aa3",
      "function": "createProject(uint256,uint256)",
      "arguments": [
        "20000000000000000000",
        "4"
      ],
      "transaction": {
        "from": "0xf39fd6e51aad88f6f4ce6ab8827279cfffb92266",
        "to": "0x5fbdb2315678afecb367f032d93f642f64180aa3",
        "gas": "0x29869",
        "value": "0x0",
        "input": "0x02da667b000000000000000000000000000000000000000000000001158e460913d000000000000000000000000000000000000000000000000000000000000000000004",
        "nonce": "0x4",
        "chainId": "0x1"
      },
      "additionalContracts": [],
      "isFixedGasLimit": false
    },
    {
      "hash": "0x22eb550a0dfeca8668d141a74f64d3d40fc561cf64a411634753242f145ec78c",
      "transactionType": "CALL",
      "contractName": "Fundify",
      "contractAddress": "0x5fbdb2315678afecb367f032d93f642f64180aa3",
      "function": "fundProject(address,uint256)",
      "arguments": [
        "0xf39Fd6e51aad88F6F4ce6aB8827279cffFb92266",
        "0"
      ],
      "transaction": {
        "from": "0x70997970c51812dc3a010c7d01b50e0d17dc79c8",
        "to": "0x5fbdb2315678afecb367f032d93f642f64180aa3",
        "gas": "0x2b91e",
        "value": "0x1bc16d674ec80000",
        "input": "0x4491629b000000000000000000000000f39fd6e51aad88f6f4ce6ab8827279cfffb922660000000000000000000000000000000000000000000000000000000000000000",
        "nonce": "0x0",
        "chainId": "0x1"
      },
      "additionalContracts": [],
      "isFixedGasLimit": false
    },
    {
      "hash": "0x45c8551494f4ff2d74472870bd3ce8d33d57763ebb200b570db602669abd1bce",
      "transactionType": "CALL",
      "contractName": "Fundify",
      "contractAddress": "0x5fbdb2315678afecb367f032d93f642f64180aa3",
      "function": "fundProject(address,uint256)",
      "arguments": [
        "0xf39Fd6e51aad88F6F4ce6aB8827279cffFb92266",
        "1"
      ],
      "transaction": {
        "from": "0x70997970c51812dc3a010c7d01b50e0d17dc79c8",
        "to": "0x5fbdb2315678afecb367f032d93f642f64180aa3",
        "gas": "0x2a190",
        "value": "0xde0b6b3a7640000",
        "input": "0x4491629b000000000000000000000000f39fd6e51aad88f6f4ce6ab8827279cfffb922660000000000000000000000000000000000000000000000000000000000000001",
        "nonce": "0x1",
        "chainId": "0x1"
      },
      "additionalContracts": [],
      "isFixedGasLimit": false
    },
    {
      "hash": "0xe1ccf3f1aef2c486354093d241de2b5e139b1694313e5bf3235cc6e49607e000",
      "transactionType": "CALL",
      "contractName": "Fundify",
      "contractAddress": "0x5fbdb2315678afecb367f032d93f642f64180aa3",
      "function": "fundProject(address,uint256)",
      "arguments": [
        "0xf39Fd6e51aad88F6F4ce6aB8827279cffFb92266",
        "2"
      ],
      "transaction": {
        "from": "0x70997970c51812dc3a010c7d01b50e0d17dc79c8",
        "to": "0x5fbdb2315678afecb367f032d93f642f64180aa3",
        "gas": "0x2a190",
        "value": "0x1bc16d674ec80000",
        "input": "0x4491629b000000000000000000000000f39fd6e51aad88f6f4ce6ab8827279cfffb922660000000000000000000000000000000000000000000000000000000000000002",
        "nonce": "0x2",
        "chainId": "0x1"
      },
      "additionalContracts": [],
      "isFixedGasLimit": false
    },
    {
      "hash": "0xeb628415fcaf200216eff2fda96427e6d7bda8733b631ff2f8dd199b5fecfc2d",
      "transactionType": "CALL",
      "contractName": "Fundify",
      "contractAddress": "0x5fbdb2315678afecb367f032d93f642f64180aa3",
      "function": "fundProject(address,uint256)",
      "arguments": [
        "0xf39Fd6e51aad88F6F4ce6aB8827279cffFb92266",
        "0"
      ],
      "transaction": {
        "from": "0x3c44cdddb6a900fa2b585dd299e03d12fa4293bc",
        "to": "0x5fbdb2315678afecb367f032d93f642f64180aa3",
        "gas": "0x2361f",
        "value": "0x1bc16d674ec80000",
        "input": "0x4491629b000000000000000000000000f39fd6e51aad88f6f4ce6ab8827279cfffb922660000000000000000000000000000000000000000000000000000000000000000",
        "nonce": "0x0",
        "chainId": "0x1"
      },
      "additionalContracts": [],
      "isFixedGasLimit": false
    },
    {
      "hash": "0x57741a2f87d68d67c5e64db72dddae08a7c29dcd61e8a3c584a0063879307747",
      "transactionType": "CALL",
      "contractName": "Fundify",
      "contractAddress": "0x5fbdb2315678afecb367f032d93f642f64180aa3",
      "function": "fundProject(address,uint256)",
      "arguments": [
        "0xf39Fd6e51aad88F6F4ce6aB8827279cffFb92266",
        "1"
      ],
      "transaction": {
        "from": "0x3c44cdddb6a900fa2b585dd299e03d12fa4293bc",
        "to": "0x5fbdb2315678afecb367f032d93f642f64180aa3",
        "gas": "0x2677e",
        "value": "0xde0b6b3a7640000",
        "input": "0x4491629b000000000000000000000000f39fd6e51aad88f6f4ce6ab8827279cfffb922660000000000000000000000000000000000000000000000000000000000000001",
        "nonce": "0x1",
        "chainId": "0x1"
      },
      "additionalContracts": [],
      "isFixedGasLimit": false
    },
    {
      "hash": "0x1cb941367bdfd39557b4eff5adccd3ccfa8aa1473213202f00a57b7c91375374",
      "transactionType": "CALL",
      "contractName": "Fundify",
      "contractAddress": "0x5fbdb2315678afecb367f032d93f642f64180aa3",
      "function": "fundProject(address,uint256)",
      "arguments": [
        "0xf39Fd6e51aad88F6F4ce6aB8827279cffFb92266",
        "2"
      ],
      "transaction": {
        "from": "0x3c44cdddb6a900fa2b585dd299e03d12fa4293bc",
        "to": "0x5fbdb2315678afecb367f032d93f642f64180aa3",
        "gas": "0x2677e",
        "value": "0x1bc16d674ec80000",
        "input": "0x4491629b000000000000000000000000f39fd6e51aad88f6f4ce6ab8827279cfffb922660000000000000000000000000000000000000000000000000000000000000002",
        "nonce": "0x2",
        "chainId": "0x1"
      },
      "additionalContracts": [],
      "isFixedGasLimit": false
    },
    {
      "hash": "0x4be97a5cfb71460b0686feb247c2e0ba2757f9b890c60b822b9b0091b3eac7f6",
      "transactionType": "CALL",
      "contractName": "Fundify",
      "contractAddress": "0x5fbdb2315678afecb367f032d93f642f64180aa3",
      "function": "fundProject(address,uint256)",
      "arguments": [
        "0xf39Fd6e51aad88F6F4ce6aB8827279cffFb92266",
        "0"
      ],
      "transaction": {
        "from": "0x90f79bf6eb2c4f870365e785982e1f101e93b906",
        "to": "0x5fbdb2315678afecb367f032d93f642f64180aa3",
        "gas": "0x2361f",
        "value": "0x1bc16d674ec80000",
        "input": "0x4491629b000000000000000000000000f39fd6e51aad88f6f4ce6ab8827279cfffb922660000000000000000000000000000000000000000000000000000000000000000",
        "nonce": "0x0",
        "chainId": "0x1"
      },
      "additionalContracts": [],
      "isFixedGasLimit": false
    },
    {
      "hash": "0x9ce6a3a1b7d3994ef30b8b91138846d31d9ec12b1a7db37de17abf7d3cc6a259",
      "transactionType": "CALL",
      "contractName": "Fundify",
      "contractAddress": "0x5fbdb2315678afecb367f032d93f642f64180aa3",
      "function": "fundProject(address,uint256)",
      "arguments": [
        "0xf39Fd6e51aad88F6F4ce6aB8827279cffFb92266",
        "1"
      ],
      "transaction": {
        "from": "0x90f79bf6eb2c4f870365e785982e1f101e93b906",
        "to": "0x5fbdb2315678afecb367f032d93f642f64180aa3",
        "gas": "0x2677e",
        "value": "0xde0b6b3a7640000",
        "input": "0x4491629b000000000000000000000000f39fd6e51aad88f6f4ce6ab8827279cfffb922660000000000000000000000000000000000000000000000000000000000000001",
        "nonce": "0x1",
        "chainId": "0x1"
      },
      "additionalContracts": [],
      "isFixedGasLimit": false
    },
    {
      "hash": "0x34e8e886be57df4f6034bf86db43215c3d466de67e609f9469b6590f1440b2a6",
      "transactionType": "CALL",
      "contractName": "Fundify",
      "contractAddress": "0x5fbdb2315678afecb367f032d93f642f64180aa3",
      "function": "fundProject(address,uint256)",
      "arguments": [
        "0xf39Fd6e51aad88F6F4ce6aB8827279cffFb92266",
        "2"
      ],
      "transaction": {
        "from": "0x90f79bf6eb2c4f870365e785982e1f101e93b906",
        "to": "0x5fbdb2315678afecb367f032d93f642f64180aa3",
        "gas": "0x2677e",
        "value": "0x1bc16d674ec80000",
        "input": "0x4491629b000000000000000000000000f39fd6e51aad88f6f4ce6ab8827279cfffb922660000000000000000000000000000000000000000000000000000000000000002",
        "nonce": "0x2",
        "chainId": "0x1"
      },
      "additionalContracts": [],
      "isFixedGasLimit": false
    },
    {
      "hash": "0xec53f598253074a4a7434109eaf35458ec334b071b2be62d69e34bb3bb52d1b4",
      "transactionType": "CALL",
      "contractName": "Fundify",
      "contractAddress": "0x5fbdb2315678afecb367f032d93f642f64180aa3",
      "function": "fundProject(address,uint256)",
      "arguments": [
        "0xf39Fd6e51aad88F6F4ce6aB8827279cffFb92266",
        "0"
      ],
      "transaction": {
        "from": "0x15d34aaf54267db7d7c367839aaf71a00a2c6a65",
        "to": "0x5fbdb2315678afecb367f032d93f642f64180aa3",
        "gas": "0x2361f",
        "value": "0x1bc16d674ec80000",
        "input": "0x4491629b000000000000000000000000f39fd6e51aad88f6f4ce6ab8827279cfffb922660000000000000000000000000000000000000000000000000000000000000000",
        "nonce": "0x0",
        "chainId": "0x1"
      },
      "additionalContracts": [],
      "isFixedGasLimit": false
    },
    {
      "hash": "0x7be3d2a5df952a6933a6b0e70991b025508a961a016d80d8a738fb6943b8801e",
      "transactionType": "CALL",
      "contractName": "Fundify",
      "contractAddress": "0x5fbdb2315678afecb367f032d93f642f64180aa3",
      "function": "fundProject(address,uint256)",
      "arguments": [
        "0xf39Fd6e51aad88F6F4ce6aB8827279cffFb92266",
        "1"
      ],
      "transaction": {
        "from": "0x15d34aaf54267db7d7c367839aaf71a00a2c6a65",
        "to": "0x5fbdb2315678afecb367f032d93f642f64180aa3",
        "gas": "0x2677e",
        "value": "0xde0b6b3a7640000",
        "input": "0x4491629b000000000000000000000000f39fd6e51aad88f6f4ce6ab8827279cfffb922660000000000000000000000000000000000000000000000000000000000000001",
        "nonce": "0x1",
        "chainId": "0x1"
      },
      "additionalContracts": [],
      "isFixedGasLimit": false
    },
    {
      "hash": "0x10060e2085dbefb33916bdcb828f53a6675d42e37a8b265878844b1587a64c35",
      "transactionType": "CALL",
      "contractName": "Fundify",
      "contractAddress": "0x5fbdb2315678afecb367f032d93f642f64180aa3",
      "function": "fundProject(address,uint256)",
      "arguments": [
        "0xf39Fd6e51aad88F6F4ce6aB8827279cffFb92266",
        "2"
      ],
      "transaction": {
        "from": "0x15d34aaf54267db7d7c367839aaf71a00a2c6a65",
        "to": "0x5fbdb2315678afecb367f032d93f642f64180aa3",
        "gas": "0x2677e",
        "value": "0x1bc16d674ec80000",
        "input": "0x4491629b000000000000000000000000f39fd6e51aad88f6f4ce6ab8827279cfffb922660000000000000000000000000000000000000000000000000000000000000002",
        "nonce": "0x2",
        "chainId": "0x1"
      },
      "additionalContracts": [],
      "isFixedGasLimit": false
    },
    {
      "hash": "0x194f87f8d570678d4e1598f0386d715bd78fd186b0a7edb8c1def5d968c6e7a2",
      "transactionType": "CALL",
      "contractName": "Fundify",
      "contractAddress": "0x5fbdb2315678afecb367f032d93f642f64180aa3",
      "function": "createProject(uint256,uint256)",
      "arguments": [
        "10000000000000000000",
        "2"
      ],
      "transaction": {
        "from": "0x70997970c51812dc3a010c7d01b50e0d17dc79c8",
        "to": "0x5fbdb2315678afecb367f032d93f642f64180aa3",
        "gas": "0x2af6e",
        "value": "0x0",
        "input": "0x02da667b0000000000000000000000000000000000000000000000008ac7230489e800000000000000000000000000000000000000000000000000000000000000000002",
        "nonce": "0x3",
        "chainId": "0x1"
      },
      "additionalContracts": [],
      "isFixedGasLimit": false
    },
    {
      "hash": "0x04ea2d811e361f6fcb23a8c36995a34d2a77725ee549731fcb51b3b90286c707",
      "transactionType": "CALL",
      "contractName": "Fundify",
      "contractAddress": "0x5fbdb2315678afecb367f032d93f642f64180aa3",
      "function": "createProject(uint256,uint256)",
      "arguments": [
        "5000000000000000000",
        "3"
      ],
      "transaction": {
        "from": "0x70997970c51812dc3a010c7d01b50e0d17dc79c8",
        "to": "0x5fbdb2315678afecb367f032d93f642f64180aa3",
        "gas": "0x2bf6d",
        "value": "0x0",
        "input": "0x02da667b0000000000000000000000000000000000000000000000004563918244f400000000000000000000000000000000000000000000000000000000000000000003",
        "nonce": "0x4",
        "chainId": "0x1"
      },
      "additionalContracts": [],
      "isFixedGasLimit": false
    },
    {
      "hash": "0xef3c0ea78b4f117f1dd50f1a07a14d071f1fef24406810b763ec93b9cbf19b74",
      "transactionType": "CALL",
      "contractName": "Fundify",
      "contractAddress": "0x5fbdb2315678afecb367f032d93f642f64180aa3",
      "function": "createProject(uint256,uint256)",
      "arguments": [
        "20000000000000000000",
        "4"
      ],
      "transaction": {
        "from": "0x70997970c51812dc3a010c7d01b50e0d17dc79c8",
        "to": "0x5fbdb2315678afecb367f032d93f642f64180aa3",
        "gas": "0x29869",
        "value": "0x0",
        "input": "0x02da667b000000000000000000000000000000000000000000000001158e460913d000000000000000000000000000000000000000000000000000000000000000000004",
        "nonce": "0x5",
        "chainId": "0x1"
      },
      "additionalContracts": [],
      "isFixedGasLimit": false
    },
    {
      "hash": "0xf49908b32c6d36ec81623d6811991eceab5b5c41f20ec62a12bc65a058ade2da",
      "transactionType": "CALL",
      "contractName": "Fundify",
      "contractAddress": "0x5fbdb2315678afecb367f032d93f642f64180aa3",
      "function": "fundProject(address,uint256)",
      "arguments": [
        "0x70997970C51812dc3A010C7d01b50e0d17dc79C8",
        "0"
      ],
      "transaction": {
        "from": "0x70997970c51812dc3a010c7d01b50e0d17dc79c8",
        "to": "0x5fbdb2315678afecb367f032d93f642f64180aa3",
        "gas": "0x2361f",
        "value": "0x1bc16d674ec80000",
        "input": "0x4491629b00000000000000000000000070997970c51812dc3a010c7d01b50e0d17dc79c80000000000000000000000000000000000000000000000000000000000000000",
        "nonce": "0x6",
        "chainId": "0x1"
      },
      "additionalContracts": [],
      "isFixedGasLimit": false
    },
    {
      "hash": "0xce3c2396c36c75176b354f4e26b4b36ad01e2c672dc3db8b8dfc04abce63141e",
      "transactionType": "CALL",
      "contractName": "Fundify",
      "contractAddress": "0x5fbdb2315678afecb367f032d93f642f64180aa3",
      "function": "fundProject(address,uint256)",
      "arguments": [
        "0x70997970C51812dc3A010C7d01b50e0d17dc79C8",
        "1"
      ],
      "transaction": {
        "from": "0x70997970c51812dc3a010c7d01b50e0d17dc79c8",
        "to": "0x5fbdb2315678afecb367f032d93f642f64180aa3",
        "gas": "0x2a190",
        "value": "0xde0b6b3a7640000",
        "input": "0x4491629b00000000000000000000000070997970c51812dc3a010c7d01b50e0d17dc79c80000000000000000000000000000000000000000000000000000000000000001",
        "nonce": "0x7",
        "chainId": "0x1"
      },
      "additionalContracts": [],
      "isFixedGasLimit": false
    },
    {
      "hash": "0x555c414d30208c9597281f0deb16da73e08bb86cbdb3506216d781da85301aed",
      "transactionType": "CALL",
      "contractName": "Fundify",
      "contractAddress": "0x5fbdb2315678afecb367f032d93f642f64180aa3",
      "function": "fundProject(address,uint256)",
      "arguments": [
        "0x70997970C51812dc3A010C7d01b50e0d17dc79C8",
        "2"
      ],
      "transaction": {
        "from": "0x70997970c51812dc3a010c7d01b50e0d17dc79c8",
        "to": "0x5fbdb2315678afecb367f032d93f642f64180aa3",
        "gas": "0x2a190",
        "value": "0x1bc16d674ec80000",
        "input": "0x4491629b00000000000000000000000070997970c51812dc3a010c7d01b50e0d17dc79c80000000000000000000000000000000000000000000000000000000000000002",
        "nonce": "0x8",
        "chainId": "0x1"
      },
      "additionalContracts": [],
      "isFixedGasLimit": false
    },
    {
      "hash": "0x096c91464e4310d26972ad6822101c1c43be71940561acc31c136351c61bc9a8",
      "transactionType": "CALL",
      "contractName": "Fundify",
      "contractAddress": "0x5fbdb2315678afecb367f032d93f642f64180aa3",
      "function": "fundProject(address,uint256)",
      "arguments": [
        "0x70997970C51812dc3A010C7d01b50e0d17dc79C8",
        "0"
      ],
      "transaction": {
        "from": "0x3c44cdddb6a900fa2b585dd299e03d12fa4293bc",
        "to": "0x5fbdb2315678afecb367f032d93f642f64180aa3",
        "gas": "0x1f5bd",
        "value": "0x1bc16d674ec80000",
        "input": "0x4491629b00000000000000000000000070997970c51812dc3a010c7d01b50e0d17dc79c80000000000000000000000000000000000000000000000000000000000000000",
        "nonce": "0x3",
        "chainId": "0x1"
      },
      "additionalContracts": [],
      "isFixedGasLimit": false
    },
    {
      "hash": "0x31493b8b3da59d4a7379bac7eb94cfbca9a3adcae8643ebcfc82de73d32216da",
      "transactionType": "CALL",
      "contractName": "Fundify",
      "contractAddress": "0x5fbdb2315678afecb367f032d93f642f64180aa3",
      "function": "fundProject(address,uint256)",
      "arguments": [
        "0x70997970C51812dc3A010C7d01b50e0d17dc79C8",
        "1"
      ],
      "transaction": {
        "from": "0x3c44cdddb6a900fa2b585dd299e03d12fa4293bc",
        "to": "0x5fbdb2315678afecb367f032d93f642f64180aa3",
        "gas": "0x2677e",
        "value": "0xde0b6b3a7640000",
        "input": "0x4491629b00000000000000000000000070997970c51812dc3a010c7d01b50e0d17dc79c80000000000000000000000000000000000000000000000000000000000000001",
        "nonce": "0x4",
        "chainId": "0x1"
      },
      "additionalContracts": [],
      "isFixedGasLimit": false
    },
    {
      "hash": "0x91892c47bc5533a514c69fb2e8febe78703064595519dd65626a9464d8f173e6",
      "transactionType": "CALL",
      "contractName": "Fundify",
      "contractAddress": "0x5fbdb2315678afecb367f032d93f642f64180aa3",
      "function": "fundProject(address,uint256)",
      "arguments": [
        "0x70997970C51812dc3A010C7d01b50e0d17dc79C8",
        "2"
      ],
      "transaction": {
        "from": "0x3c44cdddb6a900fa2b585dd299e03d12fa4293bc",
        "to": "0x5fbdb2315678afecb367f032d93f642f64180aa3",
        "gas": "0x2677e",
        "value": "0x1bc16d674ec80000",
        "input": "0x4491629b00000000000000000000000070997970c51812dc3a010c7d01b50e0d17dc79c80000000000000000000000000000000000000000000000000000000000000002",
        "nonce": "0x5",
        "chainId": "0x1"
      },
      "additionalContracts": [],
      "isFixedGasLimit": false
    },
    {
      "hash": "0xadb5c91451ef96fea4e1570754d74ec5e3e3860dc5b98457f79a071b7e6f6dbc",
      "transactionType": "CALL",
      "contractName": "Fundify",
      "contractAddress": "0x5fbdb2315678afecb367f032d93f642f64180aa3",
      "function": "fundProject(address,uint256)",
      "arguments": [
        "0x70997970C51812dc3A010C7d01b50e0d17dc79C8",
        "0"
      ],
      "transaction": {
        "from": "0x90f79bf6eb2c4f870365e785982e1f101e93b906",
        "to": "0x5fbdb2315678afecb367f032d93f642f64180aa3",
        "gas": "0x1f5bd",
        "value": "0x1bc16d674ec80000",
        "input": "0x4491629b00000000000000000000000070997970c51812dc3a010c7d01b50e0d17dc79c80000000000000000000000000000000000000000000000000000000000000000",
        "nonce": "0x3",
        "chainId": "0x1"
      },
      "additionalContracts": [],
      "isFixedGasLimit": false
    },
    {
      "hash": "0xbfee471761b0646e53d1e0c68afd23a90b5a7419f8facab455e70fb8c86484a4",
      "transactionType": "CALL",
      "contractName": "Fundify",
      "contractAddress": "0x5fbdb2315678afecb367f032d93f642f64180aa3",
      "function": "fundProject(address,uint256)",
      "arguments": [
        "0x70997970C51812dc3A010C7d01b50e0d17dc79C8",
        "1"
      ],
      "transaction": {
        "from": "0x90f79bf6eb2c4f870365e785982e1f101e93b906",
        "to": "0x5fbdb2315678afecb367f032d93f642f64180aa3",
        "gas": "0x2677e",
        "value": "0xde0b6b3a7640000",
        "input": "0x4491629b00000000000000000000000070997970c51812dc3a010c7d01b50e0d17dc79c80000000000000000000000000000000000000000000000000000000000000001",
        "nonce": "0x4",
        "chainId": "0x1"
      },
      "additionalContracts": [],
      "isFixedGasLimit": false
    },
    {
      "hash": "0xe75716651c5c1d99e9890082d70f4346f0d2b3f816a3c6496ac4aacece74fa40",
      "transactionType": "CALL",
      "contractName": "Fundify",
      "contractAddress": "0x5fbdb2315678afecb367f032d93f642f64180aa3",
      "function": "fundProject(address,uint256)",
      "arguments": [
        "0x70997970C51812dc3A010C7d01b50e0d17dc79C8",
        "2"
      ],
      "transaction": {
        "from": "0x90f79bf6eb2c4f870365e785982e1f101e93b906",
        "to": "0x5fbdb2315678afecb367f032d93f642f64180aa3",
        "gas": "0x2677e",
        "value": "0x1bc16d674ec80000",
        "input": "0x4491629b00000000000000000000000070997970c51812dc3a010c7d01b50e0d17dc79c80000000000000000000000000000000000000000000000000000000000000002",
        "nonce": "0x5",
        "chainId": "0x1"
      },
      "additionalContracts": [],
      "isFixedGasLimit": false
    },
    {
      "hash": "0xe1439407c159b31c4330a33a251cd388d9ace3ccc55022663cb4afc3c2a044b9",
      "transactionType": "CALL",
      "contractName": "Fundify",
      "contractAddress": "0x5fbdb2315678afecb367f032d93f642f64180aa3",
      "function": "fundProject(address,uint256)",
      "arguments": [
        "0x70997970C51812dc3A010C7d01b50e0d17dc79C8",
        "0"
      ],
      "transaction": {
        "from": "0x15d34aaf54267db7d7c367839aaf71a00a2c6a65",
        "to": "0x5fbdb2315678afecb367f032d93f642f64180aa3",
        "gas": "0x1f5bd",
        "value": "0x1bc16d674ec80000",
        "input": "0x4491629b00000000000000000000000070997970c51812dc3a010c7d01b50e0d17dc79c80000000000000000000000000000000000000000000000000000000000000000",
        "nonce": "0x3",
        "chainId": "0x1"
      },
      "additionalContracts": [],
      "isFixedGasLimit": false
    },
    {
      "hash": "0x46f8c628fafc38824ee4a03c15a202a2dd7f67674859d3f8a554333cef8c6035",
      "transactionType": "CALL",
      "contractName": "Fundify",
      "contractAddress": "0x5fbdb2315678afecb367f032d93f642f64180aa3",
      "function": "fundProject(address,uint256)",
      "arguments": [
        "0x70997970C51812dc3A010C7d01b50e0d17dc79C8",
        "1"
      ],
      "transaction": {
        "from": "0x15d34aaf54267db7d7c367839aaf71a00a2c6a65",
        "to": "0x5fbdb2315678afecb367f032d93f642f64180aa3",
        "gas": "0x2677e",
        "value": "0xde0b6b3a7640000",
        "input": "0x4491629b00000000000000000000000070997970c51812dc3a010c7d01b50e0d17dc79c80000000000000000000000000000000000000000000000000000000000000001",
        "nonce": "0x4",
        "chainId": "0x1"
      },
      "additionalContracts": [],
      "isFixedGasLimit": false
    },
    {
      "hash": "0xf2a4544533343536a26ba57f388d4338adbb9329dc3135c4695de0c97d3eb5e4",
      "transactionType": "CALL",
      "contractName": "Fundify",
      "contractAddress": "0x5fbdb2315678afecb367f032d93f642f64180aa3",
      "function": "fundProject(address,uint256)",
      "arguments": [
        "0x70997970C51812dc3A010C7d01b50e0d17dc79C8",
        "2"
      ],
      "transaction": {
        "from": "0x15d34aaf54267db7d7c367839aaf71a00a2c6a65",
        "to": "0x5fbdb2315678afecb367f032d93f642f64180aa3",
        "gas": "0x2677e",
        "value": "0x1bc16d674ec80000",
        "input": "0x4491629b00000000000000000000000070997970c51812dc3a010c7d01b50e0d17dc79c80000000000000000000000000000000000000000000000000000000000000002",
        "nonce": "0x5",
        "chainId": "0x1"
      },
      "additionalContracts": [],
      "isFixedGasLimit": false
    },
    {
      "hash": "0xeeba397149334ba851b54cd25955c88fd3f61349228763826b34f912020454a8",
      "transactionType": "CALL",
      "contractName": "Fundify",
      "contractAddress": "0x5fbdb2315678afecb367f032d93f642f64180aa3",
      "function": "createProject(uint256,uint256)",
      "arguments": [
        "10000000000000000000",
        "2"
      ],
      "transaction": {
        "from": "0x3c44cdddb6a900fa2b585dd299e03d12fa4293bc",
        "to": "0x5fbdb2315678afecb367f032d93f642f64180aa3",
        "gas": "0x2af6e",
        "value": "0x0",
        "input": "0x02da667b0000000000000000000000000000000000000000000000008ac7230489e800000000000000000000000000000000000000000000000000000000000000000002",
        "nonce": "0x6",
        "chainId": "0x1"
      },
      "additionalContracts": [],
      "isFixedGasLimit": false
    },
    {
      "hash": "0xa98e161b31b910ffdd146ed9fcbb8453581f3357875e920fb1b70f2f771fa225",
      "transactionType": "CALL",
      "contractName": "Fundify",
      "contractAddress": "0x5fbdb2315678afecb367f032d93f642f64180aa3",
      "function": "createProject(uint256,uint256)",
      "arguments": [
        "5000000000000000000",
        "3"
      ],
      "transaction": {
        "from": "0x3c44cdddb6a900fa2b585dd299e03d12fa4293bc",
        "to": "0x5fbdb2315678afecb367f032d93f642f64180aa3",
        "gas": "0x2bf6d",
        "value": "0x0",
        "input": "0x02da667b0000000000000000000000000000000000000000000000004563918244f400000000000000000000000000000000000000000000000000000000000000000003",
        "nonce": "0x7",
        "chainId": "0x1"
      },
      "additionalContracts": [],
      "isFixedGasLimit": false
    },
    {
      "hash": "0x6d9a996b1e3184e588ac0e59abe605da07c04f8ace55e2b8d542e95badff11f5",
      "transactionType": "CALL",
      "contractName": "Fundify",
      "contractAddress": "0x5fbdb2315678afecb367f032d93f642f64180aa3",
      "function": "createProject(uint256,uint256)",
      "arguments": [
        "20000000000000000000",
        "4"
      ],
      "transaction": {
        "from": "0x3c44cdddb6a900fa2b585dd299e03d12fa4293bc",
        "to": "0x5fbdb2315678afecb367f032d93f642f64180aa3",
        "gas": "0x29869",
        "value": "0x0",
        "input": "0x02da667b000000000000000000000000000000000000000000000001158e460913d000000000000000000000000000000000000000000000000000000000000000000004",
        "nonce": "0x8",
        "chainId": "0x1"
      },
      "additionalContracts": [],
      "isFixedGasLimit": false
    },
    {
      "hash": "0xb5916dff0b2a416f18f894b17c6a546e3aaa5fd99ee82cf232b21436b65dcdc4",
      "transactionType": "CALL",
      "contractName": "Fundify",
      "contractAddress": "0x5fbdb2315678afecb367f032d93f642f64180aa3",
      "function": "fundProject(address,uint256)",
      "arguments": [
        "0x3C44CdDdB6a900fa2b585dd299e03d12FA4293BC",
        "0"
      ],
      "transaction": {
        "from": "0x70997970c51812dc3a010c7d01b50e0d17dc79c8",
        "to": "0x5fbdb2315678afecb367f032d93f642f64180aa3",
        "gas": "0x2575c",
        "value": "0x1bc16d674ec80000",
        "input": "0x4491629b0000000000000000000000003c44cdddb6a900fa2b585dd299e03d12fa4293bc0000000000000000000000000000000000000000000000000000000000000000",
        "nonce": "0x9",
        "chainId": "0x1"
      },
      "additionalContracts": [],
      "isFixedGasLimit": false
    },
    {
      "hash": "0xe288c7abf43e51b5ec11a9aaca9c2bcb5261ae8ab81c92ea75644c18204dfe87",
      "transactionType": "CALL",
      "contractName": "Fundify",
      "contractAddress": "0x5fbdb2315678afecb367f032d93f642f64180aa3",
      "function": "fundProject(address,uint256)",
      "arguments": [
        "0x3C44CdDdB6a900fa2b585dd299e03d12FA4293BC",
        "1"
      ],
      "transaction": {
        "from": "0x70997970c51812dc3a010c7d01b50e0d17dc79c8",
        "to": "0x5fbdb2315678afecb367f032d93f642f64180aa3",
        "gas": "0x2c91d",
        "value": "0xde0b6b3a7640000",
        "input": "0x4491629b0000000000000000000000003c44cdddb6a900fa2b585dd299e03d12fa4293bc0000000000000000000000000000000000000000000000000000000000000001",
        "nonce": "0xa",
        "chainId": "0x1"
      },
      "additionalContracts": [],
      "isFixedGasLimit": false
    },
    {
      "hash": "0xc15cdcee646d46daf46c747275e95d1ee7cfddfe2ffa03ba0f3adf97665586c6",
      "transactionType": "CALL",
      "contractName": "Fundify",
      "contractAddress": "0x5fbdb2315678afecb367f032d93f642f64180aa3",
      "function": "fundProject(address,uint256)",
      "arguments": [
        "0x3C44CdDdB6a900fa2b585dd299e03d12FA4293BC",
        "2"
      ],
      "transaction": {
        "from": "0x70997970c51812dc3a010c7d01b50e0d17dc79c8",
        "to": "0x5fbdb2315678afecb367f032d93f642f64180aa3",
        "gas": "0x2c91d",
        "value": "0x1bc16d674ec80000",
        "input": "0x4491629b0000000000000000000000003c44cdddb6a900fa2b585dd299e03d12fa4293bc0000000000000000000000000000000000000000000000000000000000000002",
        "nonce": "0xb",
        "chainId": "0x1"
      },
      "additionalContracts": [],
      "isFixedGasLimit": false
    },
    {
      "hash": "0xcf95301bf1c1a434ccb76f8b2377f4ca5e791a220e2025ab306028d85d0470e5",
      "transactionType": "CALL",
      "contractName": "Fundify",
      "contractAddress": "0x5fbdb2315678afecb367f032d93f642f64180aa3",
      "function": "fundProject(address,uint256)",
      "arguments": [
        "0x3C44CdDdB6a900fa2b585dd299e03d12FA4293BC",
        "0"
      ],
      "transaction": {
        "from": "0x3c44cdddb6a900fa2b585dd299e03d12fa4293bc",
        "to": "0x5fbdb2315678afecb367f032d93f642f64180aa3",
        "gas": "0x1d9cc",
        "value": "0x1bc16d674ec80000",
        "input": "0x4491629b0000000000000000000000003c44cdddb6a900fa2b585dd299e03d12fa4293bc0000000000000000000000000000000000000000000000000000000000000000",
        "nonce": "0x9",
        "chainId": "0x1"
      },
      "additionalContracts": [],
      "isFixedGasLimit": false
    },
    {
      "hash": "0xffad2ac65bc0f53a247fd88f32700debb29988db156fe81b9f4a620f8f6f7cd2",
      "transactionType": "CALL",
      "contractName": "Fundify",
      "contractAddress": "0x5fbdb2315678afecb367f032d93f642f64180aa3",
      "function": "fundProject(address,uint256)",
      "arguments": [
        "0x3C44CdDdB6a900fa2b585dd299e03d12FA4293BC",
        "1"
      ],
      "transaction": {
        "from": "0x3c44cdddb6a900fa2b585dd299e03d12fa4293bc",
        "to": "0x5fbdb2315678afecb367f032d93f642f64180aa3",
        "gas": "0x2453b",
        "value": "0xde0b6b3a7640000",
        "input": "0x4491629b0000000000000000000000003c44cdddb6a900fa2b585dd299e03d12fa4293bc0000000000000000000000000000000000000000000000000000000000000001",
        "nonce": "0xa",
        "chainId": "0x1"
      },
      "additionalContracts": [],
      "isFixedGasLimit": false
    },
    {
      "hash": "0x5b7c62ef0191f163e80b07182ce73a878d7e4aee14dbbfbbca7a78d2f0b2edaf",
      "transactionType": "CALL",
      "contractName": "Fundify",
      "contractAddress": "0x5fbdb2315678afecb367f032d93f642f64180aa3",
      "function": "fundProject(address,uint256)",
      "arguments": [
        "0x3C44CdDdB6a900fa2b585dd299e03d12FA4293BC",
        "2"
      ],
      "transaction": {
        "from": "0x3c44cdddb6a900fa2b585dd299e03d12fa4293bc",
        "to": "0x5fbdb2315678afecb367f032d93f642f64180aa3",
        "gas": "0x2453b",
        "value": "0x1bc16d674ec80000",
        "input": "0x4491629b0000000000000000000000003c44cdddb6a900fa2b585dd299e03d12fa4293bc0000000000000000000000000000000000000000000000000000000000000002",
        "nonce": "0xb",
        "chainId": "0x1"
      },
      "additionalContracts": [],
      "isFixedGasLimit": false
    },
    {
      "hash": "0x03723497bd7887b06a89e30354dabd3d4fe72f3b3464e18181ee5f6c88b4c1ed",
      "transactionType": "CALL",
      "contractName": "Fundify",
      "contractAddress": "0x5fbdb2315678afecb367f032d93f642f64180aa3",
      "function": "fundProject(address,uint256)",
      "arguments": [
        "0x3C44CdDdB6a900fa2b585dd299e03d12FA4293BC",
        "0"
      ],
      "transaction": {
        "from": "0x90f79bf6eb2c4f870365e785982e1f101e93b906",
        "to": "0x5fbdb2315678afecb367f032d93f642f64180aa3",
        "gas": "0x1d9cc",
        "value": "0x1bc16d674ec80000",
        "input": "0x4491629b0000000000000000000000003c44cdddb6a900fa2b585dd299e03d12fa4293bc0000000000000000000000000000000000000000000000000000000000000000",
        "nonce": "0x6",
        "chainId": "0x1"
      },
      "additionalContracts": [],
      "isFixedGasLimit": false
    },
    {
      "hash": "0x831b86f43fab468e31c5317fa50d209e71cb1d08e98229a8681ae14b5b2bef57",
      "transactionType": "CALL",
      "contractName": "Fundify",
      "contractAddress": "0x5fbdb2315678afecb367f032d93f642f64180aa3",
      "function": "fundProject(address,uint256)",
      "arguments": [
        "0x3C44CdDdB6a900fa2b585dd299e03d12FA4293BC",
        "1"
      ],
      "transaction": {
        "from": "0x90f79bf6eb2c4f870365e785982e1f101e93b906",
        "to": "0x5fbdb2315678afecb367f032d93f642f64180aa3",
        "gas": "0x2453b",
        "value": "0xde0b6b3a7640000",
        "input": "0x4491629b0000000000000000000000003c44cdddb6a900fa2b585dd299e03d12fa4293bc0000000000000000000000000000000000000000000000000000000000000001",
        "nonce": "0x7",
        "chainId": "0x1"
      },
      "additionalContracts": [],
      "isFixedGasLimit": false
    },
    {
      "hash": "0x22f0cc9678ab11bf8cf7d430b2990e65d8ae2d34c055e184bc4d3d890a2dd861",
      "transactionType": "CALL",
      "contractName": "Fundify",
      "contractAddress": "0x5fbdb2315678afecb367f032d93f642f64180aa3",
      "function": "fundProject(address,uint256)",
      "arguments": [
        "0x3C44CdDdB6a900fa2b585dd299e03d12FA4293BC",
        "2"
      ],
      "transaction": {
        "from": "0x90f79bf6eb2c4f870365e785982e1f101e93b906",
        "to": "0x5fbdb2315678afecb367f032d93f642f64180aa3",
        "gas": "0x2453b",
        "value": "0x1bc16d674ec80000",
        "input": "0x4491629b0000000000000000000000003c44cdddb6a900fa2b585dd299e03d12fa4293bc0000000000000000000000000000000000000000000000000000000000000002",
        "nonce": "0x8",
        "chainId": "0x1"
      },
      "additionalContracts": [],
      "isFixedGasLimit": false
    },
    {
      "hash": "0x891fa9289a2d4aecdf5ec153d5d428abae2e875c23e18772679b05225fefccc3",
      "transactionType": "CALL",
      "contractName": "Fundify",
      "contractAddress": "0x5fbdb2315678afecb367f032d93f642f64180aa3",
      "function": "fundProject(address,uint256)",
      "arguments": [
        "0x3C44CdDdB6a900fa2b585dd299e03d12FA4293BC",
        "0"
      ],
      "transaction": {
        "from": "0x15d34aaf54267db7d7c367839aaf71a00a2c6a65",
        "to": "0x5fbdb2315678afecb367f032d93f642f64180aa3",
        "gas": "0x1d9cc",
        "value": "0x1bc16d674ec80000",
        "input": "0x4491629b0000000000000000000000003c44cdddb6a900fa2b585dd299e03d12fa4293bc0000000000000000000000000000000000000000000000000000000000000000",
        "nonce": "0x6",
        "chainId": "0x1"
      },
      "additionalContracts": [],
      "isFixedGasLimit": false
    },
    {
      "hash": "0x551803480645a181a06e279cab9943c24e7116321f3ac485a49c3571878210c9",
      "transactionType": "CALL",
      "contractName": "Fundify",
      "contractAddress": "0x5fbdb2315678afecb367f032d93f642f64180aa3",
      "function": "fundProject(address,uint256)",
      "arguments": [
        "0x3C44CdDdB6a900fa2b585dd299e03d12FA4293BC",
        "1"
      ],
      "transaction": {
        "from": "0x15d34aaf54267db7d7c367839aaf71a00a2c6a65",
        "to": "0x5fbdb2315678afecb367f032d93f642f64180aa3",
        "gas": "0x2453b",
        "value": "0xde0b6b3a7640000",
        "input": "0x4491629b0000000000000000000000003c44cdddb6a900fa2b585dd299e03d12fa4293bc0000000000000000000000000000000000000000000000000000000000000001",
        "nonce": "0x7",
        "chainId": "0x1"
      },
      "additionalContracts": [],
      "isFixedGasLimit": false
    },
    {
      "hash": "0x41e2598adfa61476c493e319df39cbadab2ab230f42ef813d0d232e194bc0707",
      "transactionType": "CALL",
      "contractName": "Fundify",
      "contractAddress": "0x5fbdb2315678afecb367f032d93f642f64180aa3",
      "function": "fundProject(address,uint256)",
      "arguments": [
        "0x3C44CdDdB6a900fa2b585dd299e03d12FA4293BC",
        "2"
      ],
      "transaction": {
        "from": "0x15d34aaf54267db7d7c367839aaf71a00a2c6a65",
        "to": "0x5fbdb2315678afecb367f032d93f642f64180aa3",
        "gas": "0x2453b",
        "value": "0x1bc16d674ec80000",
        "input": "0x4491629b0000000000000000000000003c44cdddb6a900fa2b585dd299e03d12fa4293bc0000000000000000000000000000000000000000000000000000000000000002",
        "nonce": "0x8",
        "chainId": "0x1"
      },
      "additionalContracts": [],
      "isFixedGasLimit": false
    }
  ],
  "receipts": [
    {
      "status": "0x1",
      "cumulativeGasUsed": "0x1b7d19",
      "logs": [],
      "logsBloom": "0x00000000000000000000000000000000000000000000000000000000000000000000000000000000000000000000000000000000000000000000000000000000000000000000000000000000000000000000000000000000000000000000000000000000000000000000000000000000000000000000000000000000000000000000000000000000000000000000000000000000000000000000000000000000000000000000000000000000000000000000000000000000000000000000000000000000000000000000000000000000000000000000000000000000000000000000000000000000000000000000000000000000000000000000000000000000",
      "type": "0x2",
      "transactionHash": "0x8f0c1d119e76cfe71e5427136aceaff98145a5531b2361f1c429eb00dcf7bb10",
      "transactionIndex": "0x0",
      "blockHash": "0x99db5cb1c6e01aafcff8dc0fedb4805494c094a1ee2e47ebae1b0f8d995f25d6",
      "blockNumber": "0x1",
      "gasUsed": "0x1b7d19",
      "effectiveGasPrice": "0x3b9aca01",
      "blobGasPrice": "0x1",
      "from": "0xf39fd6e51aad88f6f4ce6ab8827279cfffb92266",
      "to": null,
      "contractAddress": "0x5fbdb2315678afecb367f032d93f642f64180aa3"
    },
    {
      "status": "0x1",
      "cumulativeGasUsed": "0x115ed",
      "logs": [
        {
          "address": "0x5fbdb2315678afecb367f032d93f642f64180aa3",
          "topics": [
            "0x8be0079c531659141344cd1fd0a4f28419497f9722a3daafe3b4186f6b6457e0",
            "0x0000000000000000000000000000000000000000000000000000000000000000",
            "0x000000000000000000000000f39fd6e51aad88f6f4ce6ab8827279cfffb92266"
          ],
          "data": "0x",
          "blockHash": "0x03c1270f1ed3676dbf0dded5d206f5510508c0e4366cde47e3aaec8773656bf9",
          "blockNumber": "0x2",
          "blockTimestamp": "0x68b59fd7",
          "transactionHash": "0x1a4adf5efad45e94f501862a9cf6bd4edec06461467edfc3241b0790677adcf1",
          "transactionIndex": "0x0",
          "logIndex": "0x0",
          "removed": false
        },
        {
          "address": "0x5fbdb2315678afecb367f032d93f642f64180aa3",
          "topics": [
            "0xc7f505b2f371ae2175ee4913f4499e1f2633a7b5936321eed1cdaeb6115181d2"
          ],
          "data": "0x0000000000000000000000000000000000000000000000000000000000000001",
          "blockHash": "0x03c1270f1ed3676dbf0dded5d206f5510508c0e4366cde47e3aaec8773656bf9",
          "blockNumber": "0x2",
          "blockTimestamp": "0x68b59fd7",
          "transactionHash": "0x1a4adf5efad45e94f501862a9cf6bd4edec06461467edfc3241b0790677adcf1",
          "transactionIndex": "0x0",
          "logIndex": "0x1",
          "removed": false
        }
      ],
      "logsBloom": "0x00000000000000000000000000000000000000000000000000800000000000000000000000000000000000000000000000000000000000000000000000000000000000000000000000000000000000000001000000000000000000000000000000000040020000000000000100000800000000000000000000000000000000400000000000000000000800000000000000000000000080000000000200000000000000000000000000000000000000000000000000000000000000000000000000000040000000200000000000000000000000002004000000000000000020000000000000000000000000000000000000000000000000000000000000000000",
      "type": "0x2",
      "transactionHash": "0x1a4adf5efad45e94f501862a9cf6bd4edec06461467edfc3241b0790677adcf1",
      "transactionIndex": "0x0",
      "blockHash": "0x03c1270f1ed3676dbf0dded5d206f5510508c0e4366cde47e3aaec8773656bf9",
      "blockNumber": "0x2",
      "gasUsed": "0x115ed",
      "effectiveGasPrice": "0x350c833c",
      "blobGasPrice": "0x1",
      "from": "0xf39fd6e51aad88f6f4ce6ab8827279cfffb92266",
      "to": "0x5fbdb2315678afecb367f032d93f642f64180aa3",
      "contractAddress": null
    },
    {
      "status": "0x1",
      "cumulativeGasUsed": "0x1d60a",
      "logs": [
        {
          "address": "0x5fbdb2315678afecb367f032d93f642f64180aa3",
          "topics": [
            "0x18bb2539629584aae5f6a7a5944b5a92a9161f09110eada6dc02e5de825a7f2f"
          ],
          "data": "0x000000000000000000000000f39fd6e51aad88f6f4ce6ab8827279cfffb9226600000000000000000000000000000000000000000000000000000000000000000000000000000000000000000000000000000000000000008ac7230489e8000000000000000000000000000000000000000000000000000000000000000000020000000000000000000000000000000000000000000000000000000068b59fd7",
          "blockHash": "0x0fb2cccef93bc8f6dcd4b9641d930089ee720a88c4d36336fb9496ab6ddcbea2",
          "blockNumber": "0x3",
          "blockTimestamp": "0x68b59fd7",
          "transactionHash": "0xb70e2cbb9af6a159bb0f4aa1c18059367efe7527aaa3010f6b4a3ea924713be4",
          "transactionIndex": "0x0",
          "logIndex": "0x0",
          "removed": false
        }
      ],
      "logsBloom": "0x00000000000000010000000000000000000000000000000000000000000000000000000000000000000000000000000000000000000000000000000000000000000000000000000000000000000000000000000000000000000000000000000000000040000000000000000000000000000000000000000000000000000000000000000000000000000000000000000000000000000000000000000200000000000800000000000000000000000000040000000000000000000000000000000000000040000000000000000000000000000000000000000000000000000000000000000000000000000000000000000000000000000000000000000000000000",
      "type": "0x2",
      "transactionHash": "0xb70e2cbb9af6a159bb0f4aa1c18059367efe7527aaa3010f6b4a3ea924713be4",
      "transactionIndex": "0x0",
      "blockHash": "0x0fb2cccef93bc8f6dcd4b9641d930089ee720a88c4d36336fb9496ab6ddcbea2",
      "blockNumber": "0x3",
      "gasUsed": "0x1d60a",
      "effectiveGasPrice": "0x2e730025",
      "blobGasPrice": "0x1",
      "from": "0xf39fd6e51aad88f6f4ce6ab8827279cfffb92266",
      "to": "0x5fbdb2315678afecb367f032d93f642f64180aa3",
      "contractAddress": null
    },
    {
      "status": "0x1",
      "cumulativeGasUsed": "0x1e0fa",
      "logs": [
        {
          "address": "0x5fbdb2315678afecb367f032d93f642f64180aa3",
          "topics": [
            "0x18bb2539629584aae5f6a7a5944b5a92a9161f09110eada6dc02e5de825a7f2f"
          ],
          "data": "0x000000000000000000000000f39fd6e51aad88f6f4ce6ab8827279cfffb9226600000000000000000000000000000000000000000000000000000000000000010000000000000000000000000000000000000000000000004563918244f4000000000000000000000000000000000000000000000000000000000000000000030000000000000000000000000000000000000000000000000000000068b59fd7",
          "blockHash": "0x0c8897ce9f46ac45aa33b114d843a6a346e93b8b2a0fadc7b375ddc42c59de0c",
          "blockNumber": "0x4",
          "blockTimestamp": "0x68b59fd7",
          "transactionHash": "0x4c53b68918bd17db286466075340db2a7c3e3ec86b04190b0d2d736735f90616",
          "transactionIndex": "0x0",
          "logIndex": "0x0",
          "removed": false
        }
      ],
      "logsBloom": "0x00000000000000010000000000000000000000000000000000000000000000000000000000000000000000000000000000000000000000000000000000000000000000000000000000000000000000000000000000000000000000000000000000000040000000000000000000000000000000000000000000000000000000000000000000000000000000000000000000000000000000000000000200000000000800000000000000000000000000040000000000000000000000000000000000000040000000000000000000000000000000000000000000000000000000000000000000000000000000000000000000000000000000000000000000000000",
      "type": "0x2",
      "transactionHash": "0x4c53b68918bd17db286466075340db2a7c3e3ec86b04190b0d2d736735f90616",
      "transactionIndex": "0x0",
      "blockHash": "0x0c8897ce9f46ac45aa33b114d843a6a346e93b8b2a0fadc7b375ddc42c59de0c",
      "blockNumber": "0x4",
      "gasUsed": "0x1e0fa",
      "effectiveGasPrice": "0x28b08c99",
      "blobGasPrice": "0x1",
      "from": "0xf39fd6e51aad88f6f4ce6ab8827279cfffb92266",
      "to": "0x5fbdb2315678afecb367f032d93f642f64180aa3",
      "contractAddress": null
    },
    {
      "status": "0x1",
      "cumulativeGasUsed": "0x1e106",
      "logs": [
        {
          "address": "0x5fbdb2315678afecb367f032d93f642f64180aa3",
          "topics": [
            "0x18bb2539629584aae5f6a7a5944b5a92a9161f09110eada6dc02e5de825a7f2f"
          ],
          "data": "0x000000000000000000000000f39fd6e51aad88f6f4ce6ab8827279cfffb922660000000000000000000000000000000000000000000000000000000000000002000000000000000000000000000000000000000000000001158e460913d0000000000000000000000000000000000000000000000000000000000000000000040000000000000000000000000000000000000000000000000000000068b59fd7",
          "blockHash": "0xc61e02da6f18540392c8e77757a010279a9554391a48f2a5dbdbb87c75cb0dff",
          "blockNumber": "0x5",
          "blockTimestamp": "0x68b59fd7",
          "transactionHash": "0x9404e0c2975282d9d17b61155aec1fec8225e772abcf4f0bfec74e7c06bd5c2f",
          "transactionIndex": "0x0",
          "logIndex": "0x0",
          "removed": false
        }
      ],
      "logsBloom": "0x00000000000000010000000000000000000000000000000000000000000000000000000000000000000000000000000000000000000000000000000000000000000000000000000000000000000000000000000000000000000000000000000000000040000000000000000000000000000000000000000000000000000000000000000000000000000000000000000000000000000000000000000200000000000800000000000000000000000000040000000000000000000000000000000000000040000000000000000000000000000000000000000000000000000000000000000000000000000000000000000000000000000000000000000000000000",
      "type": "0x2",
      "transactionHash": "0x9404e0c2975282d9d17b61155aec1fec8225e772abcf4f0bfec74e7c06bd5c2f",
      "transactionIndex": "0x0",
      "blockHash": "0xc61e02da6f18540392c8e77757a010279a9554391a48f2a5dbdbb87c75cb0dff",
      "blockNumber": "0x5",
      "gasUsed": "0x1e106",
      "effectiveGasPrice": "0x23a52b37",
      "blobGasPrice": "0x1",
      "from": "0xf39fd6e51aad88f6f4ce6ab8827279cfffb92266",
      "to": "0x5fbdb2315678afecb367f032d93f642f64180aa3",
      "contractAddress": null
    },
    {
      "status": "0x1",
      "cumulativeGasUsed": "0x1dcaa",
      "logs": [
        {
          "address": "0x5fbdb2315678afecb367f032d93f642f64180aa3",
          "topics": [
            "0x6018ad64562efd93d22d748684bd9aab8870d294413f37b6bfdca1b8cab1fd06"
          ],
          "data": "0x00000000000000000000000070997970c51812dc3a010c7d01b50e0d17dc79c800000000000000000000000000000000000000000000000000000000000000000000000000000000000000000000000000000000000000001bc16d674ec80000000000000000000000000000f39fd6e51aad88f6f4ce6ab8827279cfffb9226600000000000000000000000000000000000000000000000000000000000000000000000000000000000000000000000000000000000000000000000068b59fd7",
          "blockHash": "0x767b44d9b9ffb8ee4ace35e90449f8e9f71008eabe925ca65e938333f203c3d9",
          "blockNumber": "0x6",
          "blockTimestamp": "0x68b59fd7",
          "transactionHash": "0x22eb550a0dfeca8668d141a74f64d3d40fc561cf64a411634753242f145ec78c",
          "transactionIndex": "0x0",
          "logIndex": "0x0",
          "removed": false
        }
      ],
      "logsBloom": "0x00000000000000000001000000000000000000000000000000000000000000000000000000000000000000000000000000000000000000000000000000000000000000000000000000000000000000000000000000000000000000000000000000000040000000000000000000000000000000000000000000000000000000000000010000000000000000000000000000000000000000000000000200000000000000000000000000000000000000000000000000000000000000000000000000000040000000000000000000000000000000000000000000000000000000000000000000000000000000000000800000000000000000000000000000000000",
      "type": "0x2",
      "transactionHash": "0x22eb550a0dfeca8668d141a74f64d3d40fc561cf64a411634753242f145ec78c",
      "transactionIndex": "0x0",
      "blockHash": "0x767b44d9b9ffb8ee4ace35e90449f8e9f71008eabe925ca65e938333f203c3d9",
      "blockNumber": "0x6",
      "gasUsed": "0x1dcaa",
      "effectiveGasPrice": "0x1f39e306",
      "blobGasPrice": "0x1",
      "from": "0x70997970c51812dc3a010c7d01b50e0d17dc79c8",
      "to": "0x5fbdb2315678afecb367f032d93f642f64180aa3",
      "contractAddress": null
    },
    {
      "status": "0x1",
      "cumulativeGasUsed": "0x1e7a6",
      "logs": [
        {
          "address": "0x5fbdb2315678afecb367f032d93f642f64180aa3",
          "topics": [
            "0x6018ad64562efd93d22d748684bd9aab8870d294413f37b6bfdca1b8cab1fd06"
          ],
          "data": "0x00000000000000000000000070997970c51812dc3a010c7d01b50e0d17dc79c800000000000000000000000000000000000000000000000000000000000000010000000000000000000000000000000000000000000000000de0b6b3a7640000000000000000000000000000f39fd6e51aad88f6f4ce6ab8827279cfffb9226600000000000000000000000000000000000000000000000000000000000000010000000000000000000000000000000000000000000000000000000068b59fd7",
          "blockHash": "0xffa227a32d199fac581edc15d474ad4055aeee7c11253ac7e12690d09accb564",
          "blockNumber": "0x7",
          "blockTimestamp": "0x68b59fd7",
          "transactionHash": "0x45c8551494f4ff2d74472870bd3ce8d33d57763ebb200b570db602669abd1bce",
          "transactionIndex": "0x0",
          "logIndex": "0x0",
          "removed": false
        }
      ],
      "logsBloom": "0x00000000000000000001000000000000000000000000000000000000000000000000000000000000000000000000000000000000000000000000000000000000000000000000000000000000000000000000000000000000000000000000000000000040000000000000000000000000000000000000000000000000000000000000010000000000000000000000000000000000000000000000000200000000000000000000000000000000000000000000000000000000000000000000000000000040000000000000000000000000000000000000000000000000000000000000000000000000000000000000800000000000000000000000000000000000",
      "type": "0x2",
      "transactionHash": "0x45c8551494f4ff2d74472870bd3ce8d33d57763ebb200b570db602669abd1bce",
      "transactionIndex": "0x0",
      "blockHash": "0xffa227a32d199fac581edc15d474ad4055aeee7c11253ac7e12690d09accb564",
      "blockNumber": "0x7",
      "gasUsed": "0x1e7a6",
      "effectiveGasPrice": "0x1b5ac7a2",
      "blobGasPrice": "0x1",
      "from": "0x70997970c51812dc3a010c7d01b50e0d17dc79c8",
      "to": "0x5fbdb2315678afecb367f032d93f642f64180aa3",
      "contractAddress": null
    },
    {
      "status": "0x1",
      "cumulativeGasUsed": "0x1e7a6",
      "logs": [
        {
          "address": "0x5fbdb2315678afecb367f032d93f642f64180aa3",
          "topics": [
            "0x6018ad64562efd93d22d748684bd9aab8870d294413f37b6bfdca1b8cab1fd06"
          ],
          "data": "0x00000000000000000000000070997970c51812dc3a010c7d01b50e0d17dc79c800000000000000000000000000000000000000000000000000000000000000020000000000000000000000000000000000000000000000001bc16d674ec80000000000000000000000000000f39fd6e51aad88f6f4ce6ab8827279cfffb9226600000000000000000000000000000000000000000000000000000000000000020000000000000000000000000000000000000000000000000000000068b59fd7",
          "blockHash": "0x33399c13bf90f7693f146717db00924446041ab33c46c47fd918b190f09d3a74",
          "blockNumber": "0x8",
          "blockTimestamp": "0x68b59fd7",
          "transactionHash": "0xe1ccf3f1aef2c486354093d241de2b5e139b1694313e5bf3235cc6e49607e000",
          "transactionIndex": "0x0",
          "logIndex": "0x0",
          "removed": false
        }
      ],
      "logsBloom": "0x00000000000000000001000000000000000000000000000000000000000000000000000000000000000000000000000000000000000000000000000000000000000000000000000000000000000000000000000000000000000000000000000000000040000000000000000000000000000000000000000000000000000000000000010000000000000000000000000000000000000000000000000200000000000000000000000000000000000000000000000000000000000000000000000000000040000000000000000000000000000000000000000000000000000000000000000000000000000000000000800000000000000000000000000000000000",
      "type": "0x2",
      "transactionHash": "0xe1ccf3f1aef2c486354093d241de2b5e139b1694313e5bf3235cc6e49607e000",
      "transactionIndex": "0x0",
      "blockHash": "0x33399c13bf90f7693f146717db00924446041ab33c46c47fd918b190f09d3a74",
      "blockNumber": "0x8",
      "gasUsed": "0x1e7a6",
      "effectiveGasPrice": "0x17f6b7ab",
      "blobGasPrice": "0x1",
      "from": "0x70997970c51812dc3a010c7d01b50e0d17dc79c8",
      "to": "0x5fbdb2315678afecb367f032d93f642f64180aa3",
      "contractAddress": null
    },
    {
      "status": "0x1",
      "cumulativeGasUsed": "0x199de",
      "logs": [
        {
          "address": "0x5fbdb2315678afecb367f032d93f642f64180aa3",
          "topics": [
            "0x6018ad64562efd93d22d748684bd9aab8870d294413f37b6bfdca1b8cab1fd06"
          ],
          "data": "0x0000000000000000000000003c44cdddb6a900fa2b585dd299e03d12fa4293bc00000000000000000000000000000000000000000000000000000000000000000000000000000000000000000000000000000000000000001bc16d674ec80000000000000000000000000000f39fd6e51aad88f6f4ce6ab8827279cfffb9226600000000000000000000000000000000000000000000000000000000000000000000000000000000000000000000000000000000000000000000000068b59fd8",
          "blockHash": "0x6f8245c584612817594a640f1ddc02074ffe0f67695005aa828119becb2c4736",
          "blockNumber": "0x9",
          "blockTimestamp": "0x68b59fd8",
          "transactionHash": "0xeb628415fcaf200216eff2fda96427e6d7bda8733b631ff2f8dd199b5fecfc2d",
          "transactionIndex": "0x0",
          "logIndex": "0x0",
          "removed": false
        }
      ],
      "logsBloom": "0x00000000000000000001000000000000000000000000000000000000000000000000000000000000000000000000000000000000000000000000000000000000000000000000000000000000000000000000000000000000000000000000000000000040000000000000000000000000000000000000000000000000000000000000010000000000000000000000000000000000000000000000000200000000000000000000000000000000000000000000000000000000000000000000000000000040000000000000000000000000000000000000000000000000000000000000000000000000000000000000800000000000000000000000000000000000",
      "type": "0x2",
      "transactionHash": "0xeb628415fcaf200216eff2fda96427e6d7bda8733b631ff2f8dd199b5fecfc2d",
      "transactionIndex": "0x0",
      "blockHash": "0x6f8245c584612817594a640f1ddc02074ffe0f67695005aa828119becb2c4736",
      "blockNumber": "0x9",
      "gasUsed": "0x199de",
      "effectiveGasPrice": "0x14fe4284",
      "blobGasPrice": "0x1",
      "from": "0x3c44cdddb6a900fa2b585dd299e03d12fa4293bc",
      "to": "0x5fbdb2315678afecb367f032d93f642f64180aa3",
      "contractAddress": null
    },
    {
      "status": "0x1",
      "cumulativeGasUsed": "0x1a4da",
      "logs": [
        {
          "address": "0x5fbdb2315678afecb367f032d93f642f64180aa3",
          "topics": [
            "0x6018ad64562efd93d22d748684bd9aab8870d294413f37b6bfdca1b8cab1fd06"
          ],
          "data": "0x0000000000000000000000003c44cdddb6a900fa2b585dd299e03d12fa4293bc00000000000000000000000000000000000000000000000000000000000000010000000000000000000000000000000000000000000000000de0b6b3a7640000000000000000000000000000f39fd6e51aad88f6f4ce6ab8827279cfffb9226600000000000000000000000000000000000000000000000000000000000000010000000000000000000000000000000000000000000000000000000068b59fd8",
          "blockHash": "0x432123905a2b13bc41d4898ee2ab80c23a38db8561e8787e5b02a335a387957e",
          "blockNumber": "0xa",
          "blockTimestamp": "0x68b59fd8",
          "transactionHash": "0x57741a2f87d68d67c5e64db72dddae08a7c29dcd61e8a3c584a0063879307747",
          "transactionIndex": "0x0",
          "logIndex": "0x0",
          "removed": false
        }
      ],
      "logsBloom": "0x00000000000000000001000000000000000000000000000000000000000000000000000000000000000000000000000000000000000000000000000000000000000000000000000000000000000000000000000000000000000000000000000000000040000000000000000000000000000000000000000000000000000000000000010000000000000000000000000000000000000000000000000200000000000000000000000000000000000000000000000000000000000000000000000000000040000000000000000000000000000000000000000000000000000000000000000000000000000000000000800000000000000000000000000000000000",
      "type": "0x2",
      "transactionHash": "0x57741a2f87d68d67c5e64db72dddae08a7c29dcd61e8a3c584a0063879307747",
      "transactionIndex": "0x0",
      "blockHash": "0x432123905a2b13bc41d4898ee2ab80c23a38db8561e8787e5b02a335a387957e",
      "blockNumber": "0xa",
      "gasUsed": "0x1a4da",
      "effectiveGasPrice": "0x12632d30",
      "blobGasPrice": "0x1",
      "from": "0x3c44cdddb6a900fa2b585dd299e03d12fa4293bc",
      "to": "0x5fbdb2315678afecb367f032d93f642f64180aa3",
      "contractAddress": null
    },
    {
      "status": "0x1",
      "cumulativeGasUsed": "0x1a4da",
      "logs": [
        {
          "address": "0x5fbdb2315678afecb367f032d93f642f64180aa3",
          "topics": [
            "0x6018ad64562efd93d22d748684bd9aab8870d294413f37b6bfdca1b8cab1fd06"
          ],
          "data": "0x0000000000000000000000003c44cdddb6a900fa2b585dd299e03d12fa4293bc00000000000000000000000000000000000000000000000000000000000000020000000000000000000000000000000000000000000000001bc16d674ec80000000000000000000000000000f39fd6e51aad88f6f4ce6ab8827279cfffb9226600000000000000000000000000000000000000000000000000000000000000020000000000000000000000000000000000000000000000000000000068b59fd8",
          "blockHash": "0x0df7b9d89b32e97027da5453d2d1c3505167ef2c34a7258a89fd4d03f19348a7",
          "blockNumber": "0xb",
          "blockTimestamp": "0x68b59fd8",
          "transactionHash": "0x1cb941367bdfd39557b4eff5adccd3ccfa8aa1473213202f00a57b7c91375374",
          "transactionIndex": "0x0",
          "logIndex": "0x0",
          "removed": false
        }
      ],
      "logsBloom": "0x00000000000000000001000000000000000000000000000000000000000000000000000000000000000000000000000000000000000000000000000000000000000000000000000000000000000000000000000000000000000000000000000000000040000000000000000000000000000000000000000000000000000000000000010000000000000000000000000000000000000000000000000200000000000000000000000000000000000000000000000000000000000000000000000000000040000000000000000000000000000000000000000000000000000000000000000000000000000000000000800000000000000000000000000000000000",
      "type": "0x2",
      "transactionHash": "0x1cb941367bdfd39557b4eff5adccd3ccfa8aa1473213202f00a57b7c91375374",
      "transactionIndex": "0x0",
      "blockHash": "0x0df7b9d89b32e97027da5453d2d1c3505167ef2c34a7258a89fd4d03f19348a7",
      "blockNumber": "0xb",
      "gasUsed": "0x1a4da",
      "effectiveGasPrice": "0x101b0172",
      "blobGasPrice": "0x1",
      "from": "0x3c44cdddb6a900fa2b585dd299e03d12fa4293bc",
      "to": "0x5fbdb2315678afecb367f032d93f642f64180aa3",
      "contractAddress": null
    },
    {
      "status": "0x1",
      "cumulativeGasUsed": "0x199de",
      "logs": [
        {
          "address": "0x5fbdb2315678afecb367f032d93f642f64180aa3",
          "topics": [
            "0x6018ad64562efd93d22d748684bd9aab8870d294413f37b6bfdca1b8cab1fd06"
          ],
          "data": "0x00000000000000000000000090f79bf6eb2c4f870365e785982e1f101e93b90600000000000000000000000000000000000000000000000000000000000000000000000000000000000000000000000000000000000000001bc16d674ec80000000000000000000000000000f39fd6e51aad88f6f4ce6ab8827279cfffb9226600000000000000000000000000000000000000000000000000000000000000000000000000000000000000000000000000000000000000000000000068b59fd8",
          "blockHash": "0x5745bb501385ecfd6a94f5a213703c59788d35b54e8d89912b51a3037653bfe3",
          "blockNumber": "0xc",
          "blockTimestamp": "0x68b59fd8",
          "transactionHash": "0x4be97a5cfb71460b0686feb247c2e0ba2757f9b890c60b822b9b0091b3eac7f6",
          "transactionIndex": "0x0",
          "logIndex": "0x0",
          "removed": false
        }
      ],
      "logsBloom": "0x00000000000000000001000000000000000000000000000000000000000000000000000000000000000000000000000000000000000000000000000000000000000000000000000000000000000000000000000000000000000000000000000000000040000000000000000000000000000000000000000000000000000000000000010000000000000000000000000000000000000000000000000200000000000000000000000000000000000000000000000000000000000000000000000000000040000000000000000000000000000000000000000000000000000000000000000000000000000000000000800000000000000000000000000000000000",
      "type": "0x2",
      "transactionHash": "0x4be97a5cfb71460b0686feb247c2e0ba2757f9b890c60b822b9b0091b3eac7f6",
      "transactionIndex": "0x0",
      "blockHash": "0x5745bb501385ecfd6a94f5a213703c59788d35b54e8d89912b51a3037653bfe3",
      "blockNumber": "0xc",
      "gasUsed": "0x199de",
      "effectiveGasPrice": "0xe1b54e7",
      "blobGasPrice": "0x1",
      "from": "0x90f79bf6eb2c4f870365e785982e1f101e93b906",
      "to": "0x5fbdb2315678afecb367f032d93f642f64180aa3",
      "contractAddress": null
    },
    {
      "status": "0x1",
      "cumulativeGasUsed": "0x1a4da",
      "logs": [
        {
          "address": "0x5fbdb2315678afecb367f032d93f642f64180aa3",
          "topics": [
            "0x6018ad64562efd93d22d748684bd9aab8870d294413f37b6bfdca1b8cab1fd06"
          ],
          "data": "0x00000000000000000000000090f79bf6eb2c4f870365e785982e1f101e93b90600000000000000000000000000000000000000000000000000000000000000010000000000000000000000000000000000000000000000000de0b6b3a7640000000000000000000000000000f39fd6e51aad88f6f4ce6ab8827279cfffb9226600000000000000000000000000000000000000000000000000000000000000010000000000000000000000000000000000000000000000000000000068b59fd8",
          "blockHash": "0x97ab644c20c7e2d424def8f1f203220876c1b870f27cb531381c0bdd9b29eff5",
          "blockNumber": "0xd",
          "blockTimestamp": "0x68b59fd8",
          "transactionHash": "0x9ce6a3a1b7d3994ef30b8b91138846d31d9ec12b1a7db37de17abf7d3cc6a259",
          "transactionIndex": "0x0",
          "logIndex": "0x0",
          "removed": false
        }
      ],
      "logsBloom": "0x00000000000000000001000000000000000000000000000000000000000000000000000000000000000000000000000000000000000000000000000000000000000000000000000000000000000000000000000000000000000000000000000000000040000000000000000000000000000000000000000000000000000000000000010000000000000000000000000000000000000000000000000200000000000000000000000000000000000000000000000000000000000000000000000000000040000000000000000000000000000000000000000000000000000000000000000000000000000000000000800000000000000000000000000000000000",
      "type": "0x2",
      "transactionHash": "0x9ce6a3a1b7d3994ef30b8b91138846d31d9ec12b1a7db37de17abf7d3cc6a259",
      "transactionIndex": "0x0",
      "blockHash": "0x97ab644c20c7e2d424def8f1f203220876c1b870f27cb531381c0bdd9b29eff5",
      "blockNumber": "0xd",
      "gasUsed": "0x1a4da",
      "effectiveGasPrice": "0xc5b12a9",
      "blobGasPrice": "0x1",
      "from": "0x90f79bf6eb2c4f870365e785982e1f101e93b906",
      "to": "0x5fbdb2315678afecb367f032d93f642f64180aa3",
      "contractAddress": null
    },
    {
      "status": "0x1",
      "cumulativeGasUsed": "0x1a4da",
      "logs": [
        {
          "address": "0x5fbdb2315678afecb367f032d93f642f64180aa3",
          "topics": [
            "0x6018ad64562efd93d22d748684bd9aab8870d294413f37b6bfdca1b8cab1fd06"
          ],
          "data": "0x00000000000000000000000090f79bf6eb2c4f870365e785982e1f101e93b90600000000000000000000000000000000000000000000000000000000000000020000000000000000000000000000000000000000000000001bc16d674ec80000000000000000000000000000f39fd6e51aad88f6f4ce6ab8827279cfffb9226600000000000000000000000000000000000000000000000000000000000000020000000000000000000000000000000000000000000000000000000068b59fd8",
          "blockHash": "0x287b1ce8c96bb22075517ecc7db6c9022de5e0a2a70ab05200d41ace41148b70",
          "blockNumber": "0xe",
          "blockTimestamp": "0x68b59fd8",
          "transactionHash": "0x34e8e886be57df4f6034bf86db43215c3d466de67e609f9469b6590f1440b2a6",
          "transactionIndex": "0x0",
          "logIndex": "0x0",
          "removed": false
        }
      ],
      "logsBloom": "0x00000000000000000001000000000000000000000000000000000000000000000000000000000000000000000000000000000000000000000000000000000000000000000000000000000000000000000000000000000000000000000000000000000040000000000000000000000000000000000000000000000000000000000000010000000000000000000000000000000000000000000000000200000000000000000000000000000000000000000000000000000000000000000000000000000040000000000000000000000000000000000000000000000000000000000000000000000000000000000000800000000000000000000000000000000000",
      "type": "0x2",
      "transactionHash": "0x34e8e886be57df4f6034bf86db43215c3d466de67e609f9469b6590f1440b2a6",
      "transactionIndex": "0x0",
      "blockHash": "0x287b1ce8c96bb22075517ecc7db6c9022de5e0a2a70ab05200d41ace41148b70",
      "blockNumber": "0xe",
      "gasUsed": "0x1a4da",
      "effectiveGasPrice": "0xad28756",
      "blobGasPrice": "0x1",
      "from": "0x90f79bf6eb2c4f870365e785982e1f101e93b906",
      "to": "0x5fbdb2315678afecb367f032d93f642f64180aa3",
      "contractAddress": null
    },
    {
      "status": "0x1",
      "cumulativeGasUsed": "0x199de",
      "logs": [
        {
          "address": "0x5fbdb2315678afecb367f032d93f642f64180aa3",
          "topics": [
            "0x6018ad64562efd93d22d748684bd9aab8870d294413f37b6bfdca1b8cab1fd06"
          ],
          "data": "0x00000000000000000000000015d34aaf54267db7d7c367839aaf71a00a2c6a6500000000000000000000000000000000000000000000000000000000000000000000000000000000000000000000000000000000000000001bc16d674ec80000000000000000000000000000f39fd6e51aad88f6f4ce6ab8827279cfffb9226600000000000000000000000000000000000000000000000000000000000000000000000000000000000000000000000000000000000000000000000068b59fd8",
          "blockHash": "0x4830cfcc616dd8f4a597da6895e7d112d1b8fd33069da7edf0191a502d18ccf5",
          "blockNumber": "0xf",
          "blockTimestamp": "0x68b59fd8",
          "transactionHash": "0xec53f598253074a4a7434109eaf35458ec334b071b2be62d69e34bb3bb52d1b4",
          "transactionIndex": "0x0",
          "logIndex": "0x0",
          "removed": false
        }
      ],
      "logsBloom": "0x00000000000000000001000000000000000000000000000000000000000000000000000000000000000000000000000000000000000000000000000000000000000000000000000000000000000000000000000000000000000000000000000000000040000000000000000000000000000000000000000000000000000000000000010000000000000000000000000000000000000000000000000200000000000000000000000000000000000000000000000000000000000000000000000000000040000000000000000000000000000000000000000000000000000000000000000000000000000000000000800000000000000000000000000000000000",
      "type": "0x2",
      "transactionHash": "0xec53f598253074a4a7434109eaf35458ec334b071b2be62d69e34bb3bb52d1b4",
      "transactionIndex": "0x0",
      "blockHash": "0x4830cfcc616dd8f4a597da6895e7d112d1b8fd33069da7edf0191a502d18ccf5",
      "blockNumber": "0xf",
      "gasUsed": "0x199de",
      "effectiveGasPrice": "0x97ab334",
      "blobGasPrice": "0x1",
      "from": "0x15d34aaf54267db7d7c367839aaf71a00a2c6a65",
      "to": "0x5fbdb2315678afecb367f032d93f642f64180aa3",
      "contractAddress": null
    },
    {
      "status": "0x1",
      "cumulativeGasUsed": "0x1a4da",
      "logs": [
        {
          "address": "0x5fbdb2315678afecb367f032d93f642f64180aa3",
          "topics": [
            "0x6018ad64562efd93d22d748684bd9aab8870d294413f37b6bfdca1b8cab1fd06"
          ],
          "data": "0x00000000000000000000000015d34aaf54267db7d7c367839aaf71a00a2c6a6500000000000000000000000000000000000000000000000000000000000000010000000000000000000000000000000000000000000000000de0b6b3a7640000000000000000000000000000f39fd6e51aad88f6f4ce6ab8827279cfffb9226600000000000000000000000000000000000000000000000000000000000000010000000000000000000000000000000000000000000000000000000068b59fd8",
          "blockHash": "0xe034b75d8d7c0914ca9c56745670b1e46846882afc471baa080d158c0bd9b246",
          "blockNumber": "0x10",
          "blockTimestamp": "0x68b59fd8",
          "transactionHash": "0x7be3d2a5df952a6933a6b0e70991b025508a961a016d80d8a738fb6943b8801e",
          "transactionIndex": "0x0",
          "logIndex": "0x0",
          "removed": false
        }
      ],
      "logsBloom": "0x00000000000000000001000000000000000000000000000000000000000000000000000000000000000000000000000000000000000000000000000000000000000000000000000000000000000000000000000000000000000000000000000000000040000000000000000000000000000000000000000000000000000000000000010000000000000000000000000000000000000000000000000200000000000000000000000000000000000000000000000000000000000000000000000000000040000000000000000000000000000000000000000000000000000000000000000000000000000000000000800000000000000000000000000000000000",
      "type": "0x2",
      "transactionHash": "0x7be3d2a5df952a6933a6b0e70991b025508a961a016d80d8a738fb6943b8801e",
      "transactionIndex": "0x0",
      "blockHash": "0xe034b75d8d7c0914ca9c56745670b1e46846882afc471baa080d158c0bd9b246",
      "blockNumber": "0x10",
      "gasUsed": "0x1a4da",
      "effectiveGasPrice": "0x84d7c01",
      "blobGasPrice": "0x1",
      "from": "0x15d34aaf54267db7d7c367839aaf71a00a2c6a65",
      "to": "0x5fbdb2315678afecb367f032d93f642f64180aa3",
      "contractAddress": null
    },
    {
      "status": "0x1",
      "cumulativeGasUsed": "0x1a4da",
      "logs": [
        {
          "address": "0x5fbdb2315678afecb367f032d93f642f64180aa3",
          "topics": [
            "0x6018ad64562efd93d22d748684bd9aab8870d294413f37b6bfdca1b8cab1fd06"
          ],
          "data": "0x00000000000000000000000015d34aaf54267db7d7c367839aaf71a00a2c6a6500000000000000000000000000000000000000000000000000000000000000020000000000000000000000000000000000000000000000001bc16d674ec80000000000000000000000000000f39fd6e51aad88f6f4ce6ab8827279cfffb9226600000000000000000000000000000000000000000000000000000000000000020000000000000000000000000000000000000000000000000000000068b59fd8",
          "blockHash": "0x973f7ab9bd3e177a67e4bccac5c627edf6f335952ccacb527c4b8e5badfdac64",
          "blockNumber": "0x11",
          "blockTimestamp": "0x68b59fd8",
          "transactionHash": "0x10060e2085dbefb33916bdcb828f53a6675d42e37a8b265878844b1587a64c35",
          "transactionIndex": "0x0",
          "logIndex": "0x0",
          "removed": false
        }
      ],
      "logsBloom": "0x00000000000000000001000000000000000000000000000000000000000000000000000000000000000000000000000000000000000000000000000000000000000000000000000000000000000000000000000000000000000000000000000000000040000000000000000000000000000000000000000000000000000000000000010000000000000000000000000000000000000000000000000200000000000000000000000000000000000000000000000000000000000000000000000000000040000000000000000000000000000000000000000000000000000000000000000000000000000000000000800000000000000000000000000000000000",
      "type": "0x2",
      "transactionHash": "0x10060e2085dbefb33916bdcb828f53a6675d42e37a8b265878844b1587a64c35",
      "transactionIndex": "0x0",
      "blockHash": "0x973f7ab9bd3e177a67e4bccac5c627edf6f335952ccacb527c4b8e5badfdac64",
      "blockNumber": "0x11",
      "gasUsed": "0x1a4da",
      "effectiveGasPrice": "0x745b508",
      "blobGasPrice": "0x1",
      "from": "0x15d34aaf54267db7d7c367839aaf71a00a2c6a65",
      "to": "0x5fbdb2315678afecb367f032d93f642f64180aa3",
      "contractAddress": null
    },
    {
      "status": "0x1",
      "cumulativeGasUsed": "0x1d60a",
      "logs": [
        {
          "address": "0x5fbdb2315678afecb367f032d93f642f64180aa3",
          "topics": [
            "0x18bb2539629584aae5f6a7a5944b5a92a9161f09110eada6dc02e5de825a7f2f"
          ],
          "data": "0x00000000000000000000000070997970c51812dc3a010c7d01b50e0d17dc79c800000000000000000000000000000000000000000000000000000000000000000000000000000000000000000000000000000000000000008ac7230489e8000000000000000000000000000000000000000000000000000000000000000000020000000000000000000000000000000000000000000000000000000068b59fd8",
          "blockHash": "0x219cce622541f0ee5f41cc9e8f70cfeaf6700b17356fc0fd25ac429ff5c3d158",
          "blockNumber": "0x12",
          "blockTimestamp": "0x68b59fd8",
          "transactionHash": "0x194f87f8d570678d4e1598f0386d715bd78fd186b0a7edb8c1def5d968c6e7a2",
          "transactionIndex": "0x0",
          "logIndex": "0x0",
          "removed": false
        }
      ],
      "logsBloom": "0x00000000000000010000000000000000000000000000000000000000000000000000000000000000000000000000000000000000000000000000000000000000000000000000000000000000000000000000000000000000000000000000000000000040000000000000000000000000000000000000000000000000000000000000000000000000000000000000000000000000000000000000000200000000000800000000000000000000000000040000000000000000000000000000000000000040000000000000000000000000000000000000000000000000000000000000000000000000000000000000000000000000000000000000000000000000",
      "type": "0x2",
      "transactionHash": "0x194f87f8d570678d4e1598f0386d715bd78fd186b0a7edb8c1def5d968c6e7a2",
      "transactionIndex": "0x0",
      "blockHash": "0x219cce622541f0ee5f41cc9e8f70cfeaf6700b17356fc0fd25ac429ff5c3d158",
      "blockNumber": "0x12",
      "gasUsed": "0x1d60a",
      "effectiveGasPrice": "0x65eaa4d",
      "blobGasPrice": "0x1",
      "from": "0x70997970c51812dc3a010c7d01b50e0d17dc79c8",
      "to": "0x5fbdb2315678afecb367f032d93f642f64180aa3",
      "contractAddress": null
    },
    {
      "status": "0x1",
      "cumulativeGasUsed": "0x1e0fa",
      "logs": [
        {
          "address": "0x5fbdb2315678afecb367f032d93f642f64180aa3",
          "topics": [
            "0x18bb2539629584aae5f6a7a5944b5a92a9161f09110eada6dc02e5de825a7f2f"
          ],
          "data": "0x00000000000000000000000070997970c51812dc3a010c7d01b50e0d17dc79c800000000000000000000000000000000000000000000000000000000000000010000000000000000000000000000000000000000000000004563918244f4000000000000000000000000000000000000000000000000000000000000000000030000000000000000000000000000000000000000000000000000000068b59fd8",
          "blockHash": "0x9a502a16bfe302b1a47ee84b9f57c5451973920571702c0adbc5f5105e8726d0",
          "blockNumber": "0x13",
          "blockTimestamp": "0x68b59fd8",
          "transactionHash": "0x04ea2d811e361f6fcb23a8c36995a34d2a77725ee549731fcb51b3b90286c707",
          "transactionIndex": "0x0",
          "logIndex": "0x0",
          "removed": false
        }
      ],
      "logsBloom": "0x00000000000000010000000000000000000000000000000000000000000000000000000000000000000000000000000000000000000000000000000000000000000000000000000000000000000000000000000000000000000000000000000000000040000000000000000000000000000000000000000000000000000000000000000000000000000000000000000000000000000000000000000200000000000800000000000000000000000000040000000000000000000000000000000000000040000000000000000000000000000000000000000000000000000000000000000000000000000000000000000000000000000000000000000000000000",
      "type": "0x2",
      "transactionHash": "0x04ea2d811e361f6fcb23a8c36995a34d2a77725ee549731fcb51b3b90286c707",
      "transactionIndex": "0x0",
      "blockHash": "0x9a502a16bfe302b1a47ee84b9f57c5451973920571702c0adbc5f5105e8726d0",
      "blockNumber": "0x13",
      "gasUsed": "0x1e0fa",
      "effectiveGasPrice": "0x594779d",
      "blobGasPrice": "0x1",
      "from": "0x70997970c51812dc3a010c7d01b50e0d17dc79c8",
      "to": "0x5fbdb2315678afecb367f032d93f642f64180aa3",
      "contractAddress": null
    },
    {
      "status": "0x1",
      "cumulativeGasUsed": "0x1e106",
      "logs": [
        {
          "address": "0x5fbdb2315678afecb367f032d93f642f64180aa3",
          "topics": [
            "0x18bb2539629584aae5f6a7a5944b5a92a9161f09110eada6dc02e5de825a7f2f"
          ],
          "data": "0x00000000000000000000000070997970c51812dc3a010c7d01b50e0d17dc79c80000000000000000000000000000000000000000000000000000000000000002000000000000000000000000000000000000000000000001158e460913d0000000000000000000000000000000000000000000000000000000000000000000040000000000000000000000000000000000000000000000000000000068b59fd8",
          "blockHash": "0xb4ce7a7fab0de2870144b6e1422dd8a4868f981b48f6a2011a5f74ab6b94945a",
          "blockNumber": "0x14",
          "blockTimestamp": "0x68b59fd8",
          "transactionHash": "0xef3c0ea78b4f117f1dd50f1a07a14d071f1fef24406810b763ec93b9cbf19b74",
          "transactionIndex": "0x0",
          "logIndex": "0x0",
          "removed": false
        }
      ],
      "logsBloom": "0x00000000000000010000000000000000000000000000000000000000000000000000000000000000000000000000000000000000000000000000000000000000000000000000000000000000000000000000000000000000000000000000000000000040000000000000000000000000000000000000000000000000000000000000000000000000000000000000000000000000000000000000000200000000000800000000000000000000000000040000000000000000000000000000000000000040000000000000000000000000000000000000000000000000000000000000000000000000000000000000000000000000000000000000000000000000",
      "type": "0x2",
      "transactionHash": "0xef3c0ea78b4f117f1dd50f1a07a14d071f1fef24406810b763ec93b9cbf19b74",
      "transactionIndex": "0x0",
      "blockHash": "0xb4ce7a7fab0de2870144b6e1422dd8a4868f981b48f6a2011a5f74ab6b94945a",
      "blockNumber": "0x14",
      "gasUsed": "0x1e106",
      "effectiveGasPrice": "0x4e35fe4",
      "blobGasPrice": "0x1",
      "from": "0x70997970c51812dc3a010c7d01b50e0d17dc79c8",
      "to": "0x5fbdb2315678afecb367f032d93f642f64180aa3",
      "contractAddress": null
    },
    {
      "status": "0x1",
      "cumulativeGasUsed": "0x199de",
      "logs": [
        {
          "address": "0x5fbdb2315678afecb367f032d93f642f64180aa3",
          "topics": [
            "0x6018ad64562efd93d22d748684bd9aab8870d294413f37b6bfdca1b8cab1fd06"
          ],
          "data": "0x00000000000000000000000070997970c51812dc3a010c7d01b50e0d17dc79c800000000000000000000000000000000000000000000000000000000000000030000000000000000000000000000000000000000000000001bc16d674ec8000000000000000000000000000070997970c51812dc3a010c7d01b50e0d17dc79c800000000000000000000000000000000000000000000000000000000000000000000000000000000000000000000000000000000000000000000000068b59fd8",
          "blockHash": "0x4e67558134e681bebabd080a6304654f652d306065f8bc03b18adca5d921aa03",
          "blockNumber": "0x15",
          "blockTimestamp": "0x68b59fd8",
          "transactionHash": "0xf49908b32c6d36ec81623d6811991eceab5b5c41f20ec62a12bc65a058ade2da",
          "transactionIndex": "0x0",
          "logIndex": "0x0",
          "removed": false
        }
      ],
      "logsBloom": "0x00000000000000000001000000000000000000000000000000000000000000000000000000000000000000000000000000000000000000000000000000000000000000000000000000000000000000000000000000000000000000000000000000000040000000000000000000000000000000000000000000000000000000000000010000000000000000000000000000000000000000000000000200000000000000000000000000000000000000000000000000000000000000000000000000000040000000000000000000000000000000000000000000000000000000000000000000000000000000000000800000000000000000000000000000000000",
      "type": "0x2",
      "transactionHash": "0xf49908b32c6d36ec81623d6811991eceab5b5c41f20ec62a12bc65a058ade2da",
      "transactionIndex": "0x0",
      "blockHash": "0x4e67558134e681bebabd080a6304654f652d306065f8bc03b18adca5d921aa03",
      "blockNumber": "0x15",
      "gasUsed": "0x199de",
      "effectiveGasPrice": "0x4483ca6",
      "blobGasPrice": "0x1",
      "from": "0x70997970c51812dc3a010c7d01b50e0d17dc79c8",
      "to": "0x5fbdb2315678afecb367f032d93f642f64180aa3",
      "contractAddress": null
    },
    {
      "status": "0x1",
      "cumulativeGasUsed": "0x1e7a6",
      "logs": [
        {
          "address": "0x5fbdb2315678afecb367f032d93f642f64180aa3",
          "topics": [
            "0x6018ad64562efd93d22d748684bd9aab8870d294413f37b6bfdca1b8cab1fd06"
          ],
          "data": "0x00000000000000000000000070997970c51812dc3a010c7d01b50e0d17dc79c800000000000000000000000000000000000000000000000000000000000000040000000000000000000000000000000000000000000000000de0b6b3a764000000000000000000000000000070997970c51812dc3a010c7d01b50e0d17dc79c800000000000000000000000000000000000000000000000000000000000000010000000000000000000000000000000000000000000000000000000068b59fd8",
          "blockHash": "0x6c54ad5561d15d444035b8dcc653ad3038f51ae43471d185cd4b6e92b847fd0d",
          "blockNumber": "0x16",
          "blockTimestamp": "0x68b59fd8",
          "transactionHash": "0xce3c2396c36c75176b354f4e26b4b36ad01e2c672dc3db8b8dfc04abce63141e",
          "transactionIndex": "0x0",
          "logIndex": "0x0",
          "removed": false
        }
      ],
      "logsBloom": "0x00000000000000000001000000000000000000000000000000000000000000000000000000000000000000000000000000000000000000000000000000000000000000000000000000000000000000000000000000000000000000000000000000000040000000000000000000000000000000000000000000000000000000000000010000000000000000000000000000000000000000000000000200000000000000000000000000000000000000000000000000000000000000000000000000000040000000000000000000000000000000000000000000000000000000000000000000000000000000000000800000000000000000000000000000000000",
      "type": "0x2",
      "transactionHash": "0xce3c2396c36c75176b354f4e26b4b36ad01e2c672dc3db8b8dfc04abce63141e",
      "transactionIndex": "0x0",
      "blockHash": "0x6c54ad5561d15d444035b8dcc653ad3038f51ae43471d185cd4b6e92b847fd0d",
      "blockNumber": "0x16",
      "gasUsed": "0x1e7a6",
      "effectiveGasPrice": "0x3c02a74",
      "blobGasPrice": "0x1",
      "from": "0x70997970c51812dc3a010c7d01b50e0d17dc79c8",
      "to": "0x5fbdb2315678afecb367f032d93f642f64180aa3",
      "contractAddress": null
    },
    {
      "status": "0x1",
      "cumulativeGasUsed": "0x1e7a6",
      "logs": [
        {
          "address": "0x5fbdb2315678afecb367f032d93f642f64180aa3",
          "topics": [
            "0x6018ad64562efd93d22d748684bd9aab8870d294413f37b6bfdca1b8cab1fd06"
          ],
          "data": "0x00000000000000000000000070997970c51812dc3a010c7d01b50e0d17dc79c800000000000000000000000000000000000000000000000000000000000000050000000000000000000000000000000000000000000000001bc16d674ec8000000000000000000000000000070997970c51812dc3a010c7d01b50e0d17dc79c800000000000000000000000000000000000000000000000000000000000000020000000000000000000000000000000000000000000000000000000068b59fd8",
          "blockHash": "0x7820461f1b5a29c25c1c860cb75d77963e11bd0165a3d852f8ddd18e787ca5ca",
          "blockNumber": "0x17",
          "blockTimestamp": "0x68b59fd8",
          "transactionHash": "0x555c414d30208c9597281f0deb16da73e08bb86cbdb3506216d781da85301aed",
          "transactionIndex": "0x0",
          "logIndex": "0x0",
          "removed": false
        }
      ],
      "logsBloom": "0x00000000000000000001000000000000000000000000000000000000000000000000000000000000000000000000000000000000000000000000000000000000000000000000000000000000000000000000000000000000000000000000000000000040000000000000000000000000000000000000000000000000000000000000010000000000000000000000000000000000000000000000000200000000000000000000000000000000000000000000000000000000000000000000000000000040000000000000000000000000000000000000000000000000000000000000000000000000000000000000800000000000000000000000000000000000",
      "type": "0x2",
      "transactionHash": "0x555c414d30208c9597281f0deb16da73e08bb86cbdb3506216d781da85301aed",
      "transactionIndex": "0x0",
      "blockHash": "0x7820461f1b5a29c25c1c860cb75d77963e11bd0165a3d852f8ddd18e787ca5ca",
      "blockNumber": "0x17",
      "gasUsed": "0x1e7a6",
      "effectiveGasPrice": "0x34924dc",
      "blobGasPrice": "0x1",
      "from": "0x70997970c51812dc3a010c7d01b50e0d17dc79c8",
      "to": "0x5fbdb2315678afecb367f032d93f642f64180aa3",
      "contractAddress": null
    },
    {
      "status": "0x1",
      "cumulativeGasUsed": "0x15712",
      "logs": [
        {
          "address": "0x5fbdb2315678afecb367f032d93f642f64180aa3",
          "topics": [
            "0x6018ad64562efd93d22d748684bd9aab8870d294413f37b6bfdca1b8cab1fd06"
          ],
          "data": "0x0000000000000000000000003c44cdddb6a900fa2b585dd299e03d12fa4293bc00000000000000000000000000000000000000000000000000000000000000030000000000000000000000000000000000000000000000001bc16d674ec8000000000000000000000000000070997970c51812dc3a010c7d01b50e0d17dc79c800000000000000000000000000000000000000000000000000000000000000000000000000000000000000000000000000000000000000000000000068b59fd8",
          "blockHash": "0xf48580deb2e29cfcf7be4a2b2faf9aadbb367e342c488efb734aafc6e918f420",
          "blockNumber": "0x18",
          "blockTimestamp": "0x68b59fd8",
          "transactionHash": "0x096c91464e4310d26972ad6822101c1c43be71940561acc31c136351c61bc9a8",
          "transactionIndex": "0x0",
          "logIndex": "0x0",
          "removed": false
        }
      ],
      "logsBloom": "0x00000000000000000001000000000000000000000000000000000000000000000000000000000000000000000000000000000000000000000000000000000000000000000000000000000000000000000000000000000000000000000000000000000040000000000000000000000000000000000000000000000000000000000000010000000000000000000000000000000000000000000000000200000000000000000000000000000000000000000000000000000000000000000000000000000040000000000000000000000000000000000000000000000000000000000000000000000000000000000000800000000000000000000000000000000000",
      "type": "0x2",
      "transactionHash": "0x096c91464e4310d26972ad6822101c1c43be71940561acc31c136351c61bc9a8",
      "transactionIndex": "0x0",
      "blockHash": "0xf48580deb2e29cfcf7be4a2b2faf9aadbb367e342c488efb734aafc6e918f420",
      "blockNumber": "0x18",
      "gasUsed": "0x15712",
      "effectiveGasPrice": "0x2e0e045",
      "blobGasPrice": "0x1",
      "from": "0x3c44cdddb6a900fa2b585dd299e03d12fa4293bc",
      "to": "0x5fbdb2315678afecb367f032d93f642f64180aa3",
      "contractAddress": null
    },
    {
      "status": "0x1",
      "cumulativeGasUsed": "0x1a4da",
      "logs": [
        {
          "address": "0x5fbdb2315678afecb367f032d93f642f64180aa3",
          "topics": [
            "0x6018ad64562efd93d22d748684bd9aab8870d294413f37b6bfdca1b8cab1fd06"
          ],
          "data": "0x0000000000000000000000003c44cdddb6a900fa2b585dd299e03d12fa4293bc00000000000000000000000000000000000000000000000000000000000000040000000000000000000000000000000000000000000000000de0b6b3a764000000000000000000000000000070997970c51812dc3a010c7d01b50e0d17dc79c800000000000000000000000000000000000000000000000000000000000000010000000000000000000000000000000000000000000000000000000068b59fd9",
          "blockHash": "0x9854a526f252e1fead91b16b35398842e255961d6129d31f130f117764c88681",
          "blockNumber": "0x19",
          "blockTimestamp": "0x68b59fd9",
          "transactionHash": "0x31493b8b3da59d4a7379bac7eb94cfbca9a3adcae8643ebcfc82de73d32216da",
          "transactionIndex": "0x0",
          "logIndex": "0x0",
          "removed": false
        }
      ],
      "logsBloom": "0x00000000000000000001000000000000000000000000000000000000000000000000000000000000000000000000000000000000000000000000000000000000000000000000000000000000000000000000000000000000000000000000000000000040000000000000000000000000000000000000000000000000000000000000010000000000000000000000000000000000000000000000000200000000000000000000000000000000000000000000000000000000000000000000000000000040000000000000000000000000000000000000000000000000000000000000000000000000000000000000800000000000000000000000000000000000",
      "type": "0x2",
      "transactionHash": "0x31493b8b3da59d4a7379bac7eb94cfbca9a3adcae8643ebcfc82de73d32216da",
      "transactionIndex": "0x0",
      "blockHash": "0x9854a526f252e1fead91b16b35398842e255961d6129d31f130f117764c88681",
      "blockNumber": "0x19",
      "gasUsed": "0x1a4da",
      "effectiveGasPrice": "0x2854e4d",
      "blobGasPrice": "0x1",
      "from": "0x3c44cdddb6a900fa2b585dd299e03d12fa4293bc",
      "to": "0x5fbdb2315678afecb367f032d93f642f64180aa3",
      "contractAddress": null
    },
    {
      "status": "0x1",
      "cumulativeGasUsed": "0x1a4da",
      "logs": [
        {
          "address": "0x5fbdb2315678afecb367f032d93f642f64180aa3",
          "topics": [
            "0x6018ad64562efd93d22d748684bd9aab8870d294413f37b6bfdca1b8cab1fd06"
          ],
          "data": "0x0000000000000000000000003c44cdddb6a900fa2b585dd299e03d12fa4293bc00000000000000000000000000000000000000000000000000000000000000050000000000000000000000000000000000000000000000001bc16d674ec8000000000000000000000000000070997970c51812dc3a010c7d01b50e0d17dc79c800000000000000000000000000000000000000000000000000000000000000020000000000000000000000000000000000000000000000000000000068b59fd9",
          "blockHash": "0x9aa3cc807d3393465c6e940962935018b3b2fc511110550f1ea07d9b46bd976a",
          "blockNumber": "0x1a",
          "blockTimestamp": "0x68b59fd9",
          "transactionHash": "0x91892c47bc5533a514c69fb2e8febe78703064595519dd65626a9464d8f173e6",
          "transactionIndex": "0x0",
          "logIndex": "0x0",
          "removed": false
        }
      ],
      "logsBloom": "0x00000000000000000001000000000000000000000000000000000000000000000000000000000000000000000000000000000000000000000000000000000000000000000000000000000000000000000000000000000000000000000000000000000040000000000000000000000000000000000000000000000000000000000000010000000000000000000000000000000000000000000000000200000000000000000000000000000000000000000000000000000000000000000000000000000040000000000000000000000000000000000000000000000000000000000000000000000000000000000000800000000000000000000000000000000000",
      "type": "0x2",
      "transactionHash": "0x91892c47bc5533a514c69fb2e8febe78703064595519dd65626a9464d8f173e6",
      "transactionIndex": "0x0",
      "blockHash": "0x9aa3cc807d3393465c6e940962935018b3b2fc511110550f1ea07d9b46bd976a",
      "blockNumber": "0x1a",
      "gasUsed": "0x1a4da",
      "effectiveGasPrice": "0x23538d5",
      "blobGasPrice": "0x1",
      "from": "0x3c44cdddb6a900fa2b585dd299e03d12fa4293bc",
      "to": "0x5fbdb2315678afecb367f032d93f642f64180aa3",
      "contractAddress": null
    },
    {
      "status": "0x1",
      "cumulativeGasUsed": "0x15712",
      "logs": [
        {
          "address": "0x5fbdb2315678afecb367f032d93f642f64180aa3",
          "topics": [
            "0x6018ad64562efd93d22d748684bd9aab8870d294413f37b6bfdca1b8cab1fd06"
          ],
          "data": "0x00000000000000000000000090f79bf6eb2c4f870365e785982e1f101e93b90600000000000000000000000000000000000000000000000000000000000000030000000000000000000000000000000000000000000000001bc16d674ec8000000000000000000000000000070997970c51812dc3a010c7d01b50e0d17dc79c800000000000000000000000000000000000000000000000000000000000000000000000000000000000000000000000000000000000000000000000068b59fd9",
          "blockHash": "0x3ad9dc4c1f62039b90805e700af10af5ee43ec27866d5ceae7fa578e322ed272",
          "blockNumber": "0x1b",
          "blockTimestamp": "0x68b59fd9",
          "transactionHash": "0xadb5c91451ef96fea4e1570754d74ec5e3e3860dc5b98457f79a071b7e6f6dbc",
          "transactionIndex": "0x0",
          "logIndex": "0x0",
          "removed": false
        }
      ],
      "logsBloom": "0x00000000000000000001000000000000000000000000000000000000000000000000000000000000000000000000000000000000000000000000000000000000000000000000000000000000000000000000000000000000000000000000000000000040000000000000000000000000000000000000000000000000000000000000010000000000000000000000000000000000000000000000000200000000000000000000000000000000000000000000000000000000000000000000000000000040000000000000000000000000000000000000000000000000000000000000000000000000000000000000800000000000000000000000000000000000",
      "type": "0x2",
      "transactionHash": "0xadb5c91451ef96fea4e1570754d74ec5e3e3860dc5b98457f79a071b7e6f6dbc",
      "transactionIndex": "0x0",
      "blockHash": "0x3ad9dc4c1f62039b90805e700af10af5ee43ec27866d5ceae7fa578e322ed272",
      "blockNumber": "0x1b",
      "gasUsed": "0x15712",
      "effectiveGasPrice": "0x1ef13a4",
      "blobGasPrice": "0x1",
      "from": "0x90f79bf6eb2c4f870365e785982e1f101e93b906",
      "to": "0x5fbdb2315678afecb367f032d93f642f64180aa3",
      "contractAddress": null
    },
    {
      "status": "0x1",
      "cumulativeGasUsed": "0x1a4da",
      "logs": [
        {
          "address": "0x5fbdb2315678afecb367f032d93f642f64180aa3",
          "topics": [
            "0x6018ad64562efd93d22d748684bd9aab8870d294413f37b6bfdca1b8cab1fd06"
          ],
          "data": "0x00000000000000000000000090f79bf6eb2c4f870365e785982e1f101e93b90600000000000000000000000000000000000000000000000000000000000000040000000000000000000000000000000000000000000000000de0b6b3a764000000000000000000000000000070997970c51812dc3a010c7d01b50e0d17dc79c800000000000000000000000000000000000000000000000000000000000000010000000000000000000000000000000000000000000000000000000068b59fd9",
          "blockHash": "0x954ce38535cdafd0c8618a0fb75ecdacea545ee192407f37531f6894878bf58d",
          "blockNumber": "0x1c",
          "blockTimestamp": "0x68b59fd9",
          "transactionHash": "0xbfee471761b0646e53d1e0c68afd23a90b5a7419f8facab455e70fb8c86484a4",
          "transactionIndex": "0x0",
          "logIndex": "0x0",
          "removed": false
        }
      ],
      "logsBloom": "0x00000000000000000001000000000000000000000000000000000000000000000000000000000000000000000000000000000000000000000000000000000000000000000000000000000000000000000000000000000000000000000000000000000040000000000000000000000000000000000000000000000000000000000000010000000000000000000000000000000000000000000000000200000000000000000000000000000000000000000000000000000000000000000000000000000040000000000000000000000000000000000000000000000000000000000000000000000000000000000000800000000000000000000000000000000000",
      "type": "0x2",
      "transactionHash": "0xbfee471761b0646e53d1e0c68afd23a90b5a7419f8facab455e70fb8c86484a4",
      "transactionIndex": "0x0",
      "blockHash": "0x954ce38535cdafd0c8618a0fb75ecdacea545ee192407f37531f6894878bf58d",
      "blockNumber": "0x1c",
      "gasUsed": "0x1a4da",
      "effectiveGasPrice": "0x1b18df2",
      "blobGasPrice": "0x1",
      "from": "0x90f79bf6eb2c4f870365e785982e1f101e93b906",
      "to": "0x5fbdb2315678afecb367f032d93f642f64180aa3",
      "contractAddress": null
    },
    {
      "status": "0x1",
      "cumulativeGasUsed": "0x1a4da",
      "logs": [
        {
          "address": "0x5fbdb2315678afecb367f032d93f642f64180aa3",
          "topics": [
            "0x6018ad64562efd93d22d748684bd9aab8870d294413f37b6bfdca1b8cab1fd06"
          ],
          "data": "0x00000000000000000000000090f79bf6eb2c4f870365e785982e1f101e93b90600000000000000000000000000000000000000000000000000000000000000050000000000000000000000000000000000000000000000001bc16d674ec8000000000000000000000000000070997970c51812dc3a010c7d01b50e0d17dc79c800000000000000000000000000000000000000000000000000000000000000020000000000000000000000000000000000000000000000000000000068b59fd9",
          "blockHash": "0x0c4be3bdf97cf963dc8907caffd030a6b1f6f4697cb3c8087b2ceb7f9ec1af50",
          "blockNumber": "0x1d",
          "blockTimestamp": "0x68b59fd9",
          "transactionHash": "0xe75716651c5c1d99e9890082d70f4346f0d2b3f816a3c6496ac4aacece74fa40",
          "transactionIndex": "0x0",
          "logIndex": "0x0",
          "removed": false
        }
      ],
      "logsBloom": "0x00000000000000000001000000000000000000000000000000000000000000000000000000000000000000000000000000000000000000000000000000000000000000000000000000000000000000000000000000000000000000000000000000000040000000000000000000000000000000000000000000000000000000000000010000000000000000000000000000000000000000000000000200000000000000000000000000000000000000000000000000000000000000000000000000000040000000000000000000000000000000000000000000000000000000000000000000000000000000000000800000000000000000000000000000000000",
      "type": "0x2",
      "transactionHash": "0xe75716651c5c1d99e9890082d70f4346f0d2b3f816a3c6496ac4aacece74fa40",
      "transactionIndex": "0x0",
      "blockHash": "0x0c4be3bdf97cf963dc8907caffd030a6b1f6f4697cb3c8087b2ceb7f9ec1af50",
      "blockNumber": "0x1d",
      "gasUsed": "0x1a4da",
      "effectiveGasPrice": "0x17bbfda",
      "blobGasPrice": "0x1",
      "from": "0x90f79bf6eb2c4f870365e785982e1f101e93b906",
      "to": "0x5fbdb2315678afecb367f032d93f642f64180aa3",
      "contractAddress": null
    },
    {
      "status": "0x1",
      "cumulativeGasUsed": "0x15712",
      "logs": [
        {
          "address": "0x5fbdb2315678afecb367f032d93f642f64180aa3",
          "topics": [
            "0x6018ad64562efd93d22d748684bd9aab8870d294413f37b6bfdca1b8cab1fd06"
          ],
          "data": "0x00000000000000000000000015d34aaf54267db7d7c367839aaf71a00a2c6a6500000000000000000000000000000000000000000000000000000000000000030000000000000000000000000000000000000000000000001bc16d674ec8000000000000000000000000000070997970c51812dc3a010c7d01b50e0d17dc79c800000000000000000000000000000000000000000000000000000000000000000000000000000000000000000000000000000000000000000000000068b59fd9",
          "blockHash": "0xc02a3d780f21037348f1752b14a588adf3f66cca1b063d2883d54e9e01f5f4cc",
          "blockNumber": "0x1e",
          "blockTimestamp": "0x68b59fd9",
          "transactionHash": "0xe1439407c159b31c4330a33a251cd388d9ace3ccc55022663cb4afc3c2a044b9",
          "transactionIndex": "0x0",
          "logIndex": "0x0",
          "removed": false
        }
      ],
      "logsBloom": "0x00000000000000000001000000000000000000000000000000000000000000000000000000000000000000000000000000000000000000000000000000000000000000000000000000000000000000000000000000000000000000000000000000000040000000000000000000000000000000000000000000000000000000000000010000000000000000000000000000000000000000000000000200000000000000000000000000000000000000000000000000000000000000000000000000000040000000000000000000000000000000000000000000000000000000000000000000000000000000000000800000000000000000000000000000000000",
      "type": "0x2",
      "transactionHash": "0xe1439407c159b31c4330a33a251cd388d9ace3ccc55022663cb4afc3c2a044b9",
      "transactionIndex": "0x0",
      "blockHash": "0xc02a3d780f21037348f1752b14a588adf3f66cca1b063d2883d54e9e01f5f4cc",
      "blockNumber": "0x1e",
      "gasUsed": "0x15712",
      "effectiveGasPrice": "0x14c9f28",
      "blobGasPrice": "0x1",
      "from": "0x15d34aaf54267db7d7c367839aaf71a00a2c6a65",
      "to": "0x5fbdb2315678afecb367f032d93f642f64180aa3",
      "contractAddress": null
    },
    {
      "status": "0x1",
      "cumulativeGasUsed": "0x1a4da",
      "logs": [
        {
          "address": "0x5fbdb2315678afecb367f032d93f642f64180aa3",
          "topics": [
            "0x6018ad64562efd93d22d748684bd9aab8870d294413f37b6bfdca1b8cab1fd06"
          ],
          "data": "0x00000000000000000000000015d34aaf54267db7d7c367839aaf71a00a2c6a6500000000000000000000000000000000000000000000000000000000000000040000000000000000000000000000000000000000000000000de0b6b3a764000000000000000000000000000070997970c51812dc3a010c7d01b50e0d17dc79c800000000000000000000000000000000000000000000000000000000000000010000000000000000000000000000000000000000000000000000000068b59fd9",
          "blockHash": "0xcacb5d28bfd99a3994a87c64decbc8c79d5a23fe0d4cb761c5b97ff1848fc19a",
          "blockNumber": "0x1f",
          "blockTimestamp": "0x68b59fd9",
          "transactionHash": "0x46f8c628fafc38824ee4a03c15a202a2dd7f67674859d3f8a554333cef8c6035",
          "transactionIndex": "0x0",
          "logIndex": "0x0",
          "removed": false
        }
      ],
      "logsBloom": "0x00000000000000000001000000000000000000000000000000000000000000000000000000000000000000000000000000000000000000000000000000000000000000000000000000000000000000000000000000000000000000000000000000000040000000000000000000000000000000000000000000000000000000000000010000000000000000000000000000000000000000000000000200000000000000000000000000000000000000000000000000000000000000000000000000000040000000000000000000000000000000000000000000000000000000000000000000000000000000000000800000000000000000000000000000000000",
      "type": "0x2",
      "transactionHash": "0x46f8c628fafc38824ee4a03c15a202a2dd7f67674859d3f8a554333cef8c6035",
      "transactionIndex": "0x0",
      "blockHash": "0xcacb5d28bfd99a3994a87c64decbc8c79d5a23fe0d4cb761c5b97ff1848fc19a",
      "blockNumber": "0x1f",
      "gasUsed": "0x1a4da",
      "effectiveGasPrice": "0x1234996",
      "blobGasPrice": "0x1",
      "from": "0x15d34aaf54267db7d7c367839aaf71a00a2c6a65",
      "to": "0x5fbdb2315678afecb367f032d93f642f64180aa3",
      "contractAddress": null
    },
    {
      "status": "0x1",
      "cumulativeGasUsed": "0x1a4da",
      "logs": [
        {
          "address": "0x5fbdb2315678afecb367f032d93f642f64180aa3",
          "topics": [
            "0x6018ad64562efd93d22d748684bd9aab8870d294413f37b6bfdca1b8cab1fd06"
          ],
          "data": "0x00000000000000000000000015d34aaf54267db7d7c367839aaf71a00a2c6a6500000000000000000000000000000000000000000000000000000000000000050000000000000000000000000000000000000000000000001bc16d674ec8000000000000000000000000000070997970c51812dc3a010c7d01b50e0d17dc79c800000000000000000000000000000000000000000000000000000000000000020000000000000000000000000000000000000000000000000000000068b59fd9",
          "blockHash": "0xb8aadf6e767cb1337ec4bdf7dd2cd265ce0145a7c8c938b8a7f8fb4ed54d6e9a",
          "blockNumber": "0x20",
          "blockTimestamp": "0x68b59fd9",
          "transactionHash": "0xf2a4544533343536a26ba57f388d4338adbb9329dc3135c4695de0c97d3eb5e4",
          "transactionIndex": "0x0",
          "logIndex": "0x0",
          "removed": false
        }
      ],
      "logsBloom": "0x00000000000000000001000000000000000000000000000000000000000000000000000000000000000000000000000000000000000000000000000000000000000000000000000000000000000000000000000000000000000000000000000000000040000000000000000000000000000000000000000000000000000000000000010000000000000000000000000000000000000000000000000200000000000000000000000000000000000000000000000000000000000000000000000000000040000000000000000000000000000000000000000000000000000000000000000000000000000000000000800000000000000000000000000000000000",
      "type": "0x2",
      "transactionHash": "0xf2a4544533343536a26ba57f388d4338adbb9329dc3135c4695de0c97d3eb5e4",
      "transactionIndex": "0x0",
      "blockHash": "0xb8aadf6e767cb1337ec4bdf7dd2cd265ce0145a7c8c938b8a7f8fb4ed54d6e9a",
      "blockNumber": "0x20",
      "gasUsed": "0x1a4da",
      "effectiveGasPrice": "0xff2357",
      "blobGasPrice": "0x1",
      "from": "0x15d34aaf54267db7d7c367839aaf71a00a2c6a65",
      "to": "0x5fbdb2315678afecb367f032d93f642f64180aa3",
      "contractAddress": null
    },
    {
      "status": "0x1",
      "cumulativeGasUsed": "0x1d60a",
      "logs": [
        {
          "address": "0x5fbdb2315678afecb367f032d93f642f64180aa3",
          "topics": [
            "0x18bb2539629584aae5f6a7a5944b5a92a9161f09110eada6dc02e5de825a7f2f"
          ],
          "data": "0x0000000000000000000000003c44cdddb6a900fa2b585dd299e03d12fa4293bc00000000000000000000000000000000000000000000000000000000000000000000000000000000000000000000000000000000000000008ac7230489e8000000000000000000000000000000000000000000000000000000000000000000020000000000000000000000000000000000000000000000000000000068b59fd9",
          "blockHash": "0x540d9390c5b2368dce69fb37d9c5563f901e40fed19f75d90359029541d7ee2c",
          "blockNumber": "0x21",
          "blockTimestamp": "0x68b59fd9",
          "transactionHash": "0xeeba397149334ba851b54cd25955c88fd3f61349228763826b34f912020454a8",
          "transactionIndex": "0x0",
          "logIndex": "0x0",
          "removed": false
        }
      ],
      "logsBloom": "0x00000000000000010000000000000000000000000000000000000000000000000000000000000000000000000000000000000000000000000000000000000000000000000000000000000000000000000000000000000000000000000000000000000040000000000000000000000000000000000000000000000000000000000000000000000000000000000000000000000000000000000000000200000000000800000000000000000000000000040000000000000000000000000000000000000040000000000000000000000000000000000000000000000000000000000000000000000000000000000000000000000000000000000000000000000000",
      "type": "0x2",
      "transactionHash": "0xeeba397149334ba851b54cd25955c88fd3f61349228763826b34f912020454a8",
      "transactionIndex": "0x0",
      "blockHash": "0x540d9390c5b2368dce69fb37d9c5563f901e40fed19f75d90359029541d7ee2c",
      "blockNumber": "0x21",
      "gasUsed": "0x1d60a",
      "effectiveGasPrice": "0xdf7991",
      "blobGasPrice": "0x1",
      "from": "0x3c44cdddb6a900fa2b585dd299e03d12fa4293bc",
      "to": "0x5fbdb2315678afecb367f032d93f642f64180aa3",
      "contractAddress": null
    },
    {
      "status": "0x1",
      "cumulativeGasUsed": "0x1e0fa",
      "logs": [
        {
          "address": "0x5fbdb2315678afecb367f032d93f642f64180aa3",
          "topics": [
            "0x18bb2539629584aae5f6a7a5944b5a92a9161f09110eada6dc02e5de825a7f2f"
          ],
          "data": "0x0000000000000000000000003c44cdddb6a900fa2b585dd299e03d12fa4293bc00000000000000000000000000000000000000000000000000000000000000010000000000000000000000000000000000000000000000004563918244f4000000000000000000000000000000000000000000000000000000000000000000030000000000000000000000000000000000000000000000000000000068b59fd9",
          "blockHash": "0x8d8e223d21ccece2afb4607508347a8d291b9241623e96b94aab4c4a9a5eaed9",
          "blockNumber": "0x22",
          "blockTimestamp": "0x68b59fd9",
          "transactionHash": "0xa98e161b31b910ffdd146ed9fcbb8453581f3357875e920fb1b70f2f771fa225",
          "transactionIndex": "0x0",
          "logIndex": "0x0",
          "removed": false
        }
      ],
      "logsBloom": "0x00000000000000010000000000000000000000000000000000000000000000000000000000000000000000000000000000000000000000000000000000000000000000000000000000000000000000000000000000000000000000000000000000000040000000000000000000000000000000000000000000000000000000000000000000000000000000000000000000000000000000000000000200000000000800000000000000000000000000040000000000000000000000000000000000000040000000000000000000000000000000000000000000000000000000000000000000000000000000000000000000000000000000000000000000000000",
      "type": "0x2",
      "transactionHash": "0xa98e161b31b910ffdd146ed9fcbb8453581f3357875e920fb1b70f2f771fa225",
      "transactionIndex": "0x0",
      "blockHash": "0x8d8e223d21ccece2afb4607508347a8d291b9241623e96b94aab4c4a9a5eaed9",
      "blockNumber": "0x22",
      "gasUsed": "0x1e0fa",
      "effectiveGasPrice": "0xc3c3bd",
      "blobGasPrice": "0x1",
      "from": "0x3c44cdddb6a900fa2b585dd299e03d12fa4293bc",
      "to": "0x5fbdb2315678afecb367f032d93f642f64180aa3",
      "contractAddress": null
    },
    {
      "status": "0x1",
      "cumulativeGasUsed": "0x1e106",
      "logs": [
        {
          "address": "0x5fbdb2315678afecb367f032d93f642f64180aa3",
          "topics": [
            "0x18bb2539629584aae5f6a7a5944b5a92a9161f09110eada6dc02e5de825a7f2f"
          ],
          "data": "0x0000000000000000000000003c44cdddb6a900fa2b585dd299e03d12fa4293bc0000000000000000000000000000000000000000000000000000000000000002000000000000000000000000000000000000000000000001158e460913d0000000000000000000000000000000000000000000000000000000000000000000040000000000000000000000000000000000000000000000000000000068b59fd9",
          "blockHash": "0x30939d3bfed4008cbd1e885d2bb078414c792cf4de404b38b7e30df0e519b1aa",
          "blockNumber": "0x23",
          "blockTimestamp": "0x68b59fd9",
          "transactionHash": "0x6d9a996b1e3184e588ac0e59abe605da07c04f8ace55e2b8d542e95badff11f5",
          "transactionIndex": "0x0",
          "logIndex": "0x0",
          "removed": false
        }
      ],
      "logsBloom": "0x00000000000000010000000000000000000000000000000000000000000000000000000000000000000000000000000000000000000000000000000000000000000000000000000000000000000000000000000000000000000000000000000000000040000000000000000000000000000000000000000000000000000000000000000000000000000000000000000000000000000000000000000200000000000800000000000000000000000000040000000000000000000000000000000000000040000000000000000000000000000000000000000000000000000000000000000000000000000000000000000000000000000000000000000000000000",
      "type": "0x2",
      "transactionHash": "0x6d9a996b1e3184e588ac0e59abe605da07c04f8ace55e2b8d542e95badff11f5",
      "transactionIndex": "0x0",
      "blockHash": "0x30939d3bfed4008cbd1e885d2bb078414c792cf4de404b38b7e30df0e519b1aa",
      "blockNumber": "0x23",
      "gasUsed": "0x1e106",
      "effectiveGasPrice": "0xab7eb2",
      "blobGasPrice": "0x1",
      "from": "0x3c44cdddb6a900fa2b585dd299e03d12fa4293bc",
      "to": "0x5fbdb2315678afecb367f032d93f642f64180aa3",
      "contractAddress": null
    },
    {
      "status": "0x1",
      "cumulativeGasUsed": "0x199d2",
      "logs": [
        {
          "address": "0x5fbdb2315678afecb367f032d93f642f64180aa3",
          "topics": [
            "0x6018ad64562efd93d22d748684bd9aab8870d294413f37b6bfdca1b8cab1fd06"
          ],
          "data": "0x00000000000000000000000070997970c51812dc3a010c7d01b50e0d17dc79c800000000000000000000000000000000000000000000000000000000000000060000000000000000000000000000000000000000000000001bc16d674ec800000000000000000000000000003c44cdddb6a900fa2b585dd299e03d12fa4293bc00000000000000000000000000000000000000000000000000000000000000000000000000000000000000000000000000000000000000000000000068b59fd9",
          "blockHash": "0x0dac3780cb7f1a3fd70f9362543a132500edb80a43f2a2607aae88d7838f6b4d",
          "blockNumber": "0x24",
          "blockTimestamp": "0x68b59fd9",
          "transactionHash": "0xb5916dff0b2a416f18f894b17c6a546e3aaa5fd99ee82cf232b21436b65dcdc4",
          "transactionIndex": "0x0",
          "logIndex": "0x0",
          "removed": false
        }
      ],
      "logsBloom": "0x00000000000000000001000000000000000000000000000000000000000000000000000000000000000000000000000000000000000000000000000000000000000000000000000000000000000000000000000000000000000000000000000000000040000000000000000000000000000000000000000000000000000000000000010000000000000000000000000000000000000000000000000200000000000000000000000000000000000000000000000000000000000000000000000000000040000000000000000000000000000000000000000000000000000000000000000000000000000000000000800000000000000000000000000000000000",
      "type": "0x2",
      "transactionHash": "0xb5916dff0b2a416f18f894b17c6a546e3aaa5fd99ee82cf232b21436b65dcdc4",
      "transactionIndex": "0x0",
      "blockHash": "0x0dac3780cb7f1a3fd70f9362543a132500edb80a43f2a2607aae88d7838f6b4d",
      "blockNumber": "0x24",
      "gasUsed": "0x199d2",
      "effectiveGasPrice": "0x963bea",
      "blobGasPrice": "0x1",
      "from": "0x70997970c51812dc3a010c7d01b50e0d17dc79c8",
      "to": "0x5fbdb2315678afecb367f032d93f642f64180aa3",
      "contractAddress": null
    },
    {
      "status": "0x1",
      "cumulativeGasUsed": "0x1e79a",
      "logs": [
        {
          "address": "0x5fbdb2315678afecb367f032d93f642f64180aa3",
          "topics": [
            "0x6018ad64562efd93d22d748684bd9aab8870d294413f37b6bfdca1b8cab1fd06"
          ],
          "data": "0x00000000000000000000000070997970c51812dc3a010c7d01b50e0d17dc79c800000000000000000000000000000000000000000000000000000000000000070000000000000000000000000000000000000000000000000de0b6b3a76400000000000000000000000000003c44cdddb6a900fa2b585dd299e03d12fa4293bc00000000000000000000000000000000000000000000000000000000000000010000000000000000000000000000000000000000000000000000000068b59fd9",
          "blockHash": "0x1cfe3aa45a0465d10da12e6f7fbe5d546b2133263ebbd7064a2a54bb08eadbb5",
          "blockNumber": "0x25",
          "blockTimestamp": "0x68b59fd9",
          "transactionHash": "0xe288c7abf43e51b5ec11a9aaca9c2bcb5261ae8ab81c92ea75644c18204dfe87",
          "transactionIndex": "0x0",
          "logIndex": "0x0",
          "removed": false
        }
      ],
      "logsBloom": "0x00000000000000000001000000000000000000000000000000000000000000000000000000000000000000000000000000000000000000000000000000000000000000000000000000000000000000000000000000000000000000000000000000000040000000000000000000000000000000000000000000000000000000000000010000000000000000000000000000000000000000000000000200000000000000000000000000000000000000000000000000000000000000000000000000000040000000000000000000000000000000000000000000000000000000000000000000000000000000000000800000000000000000000000000000000000",
      "type": "0x2",
      "transactionHash": "0xe288c7abf43e51b5ec11a9aaca9c2bcb5261ae8ab81c92ea75644c18204dfe87",
      "transactionIndex": "0x0",
      "blockHash": "0x1cfe3aa45a0465d10da12e6f7fbe5d546b2133263ebbd7064a2a54bb08eadbb5",
      "blockNumber": "0x25",
      "gasUsed": "0x1e79a",
      "effectiveGasPrice": "0x83960d",
      "blobGasPrice": "0x1",
      "from": "0x70997970c51812dc3a010c7d01b50e0d17dc79c8",
      "to": "0x5fbdb2315678afecb367f032d93f642f64180aa3",
      "contractAddress": null
    },
    {
      "status": "0x1",
      "cumulativeGasUsed": "0x1e79a",
      "logs": [
        {
          "address": "0x5fbdb2315678afecb367f032d93f642f64180aa3",
          "topics": [
            "0x6018ad64562efd93d22d748684bd9aab8870d294413f37b6bfdca1b8cab1fd06"
          ],
          "data": "0x00000000000000000000000070997970c51812dc3a010c7d01b50e0d17dc79c800000000000000000000000000000000000000000000000000000000000000080000000000000000000000000000000000000000000000001bc16d674ec800000000000000000000000000003c44cdddb6a900fa2b585dd299e03d12fa4293bc00000000000000000000000000000000000000000000000000000000000000020000000000000000000000000000000000000000000000000000000068b59fd9",
          "blockHash": "0x01248c662f4754b48ae20854eb7aa4865ff49f91fd5ce92e1dc79399e489a3ae",
          "blockNumber": "0x26",
          "blockTimestamp": "0x68b59fd9",
          "transactionHash": "0xc15cdcee646d46daf46c747275e95d1ee7cfddfe2ffa03ba0f3adf97665586c6",
          "transactionIndex": "0x0",
          "logIndex": "0x0",
          "removed": false
        }
      ],
      "logsBloom": "0x00000000000000000001000000000000000000000000000000000000000000000000000000000000000000000000000000000000000000000000000000000000000000000000000000000000000000000000000000000000000000000000000000000040000000000000000000000000000000000000000000000000000000000000010000000000000000000000000000000000000000000000000200000000000000000000000000000000000000000000000000000000000000000000000000000040000000000000000000000000000000000000000000000000000000000000000000000000000000000000800000000000000000000000000000000000",
      "type": "0x2",
      "transactionHash": "0xc15cdcee646d46daf46c747275e95d1ee7cfddfe2ffa03ba0f3adf97665586c6",
      "transactionIndex": "0x0",
      "blockHash": "0x01248c662f4754b48ae20854eb7aa4865ff49f91fd5ce92e1dc79399e489a3ae",
      "blockNumber": "0x26",
      "gasUsed": "0x1e79a",
      "effectiveGasPrice": "0x734656",
      "blobGasPrice": "0x1",
      "from": "0x70997970c51812dc3a010c7d01b50e0d17dc79c8",
      "to": "0x5fbdb2315678afecb367f032d93f642f64180aa3",
      "contractAddress": null
    },
    {
      "status": "0x1",
      "cumulativeGasUsed": "0x15706",
      "logs": [
        {
          "address": "0x5fbdb2315678afecb367f032d93f642f64180aa3",
          "topics": [
            "0x6018ad64562efd93d22d748684bd9aab8870d294413f37b6bfdca1b8cab1fd06"
          ],
          "data": "0x0000000000000000000000003c44cdddb6a900fa2b585dd299e03d12fa4293bc00000000000000000000000000000000000000000000000000000000000000060000000000000000000000000000000000000000000000001bc16d674ec800000000000000000000000000003c44cdddb6a900fa2b585dd299e03d12fa4293bc00000000000000000000000000000000000000000000000000000000000000000000000000000000000000000000000000000000000000000000000068b59fd9",
          "blockHash": "0xb16a7d1669d7993ea5f2dbdbf08e27b2d64d66c24ac84003de4a5c7e4cec4dc9",
          "blockNumber": "0x27",
          "blockTimestamp": "0x68b59fd9",
          "transactionHash": "0xcf95301bf1c1a434ccb76f8b2377f4ca5e791a220e2025ab306028d85d0470e5",
          "transactionIndex": "0x0",
          "logIndex": "0x0",
          "removed": false
        }
      ],
      "logsBloom": "0x00000000000000000001000000000000000000000000000000000000000000000000000000000000000000000000000000000000000000000000000000000000000000000000000000000000000000000000000000000000000000000000000000000040000000000000000000000000000000000000000000000000000000000000010000000000000000000000000000000000000000000000000200000000000000000000000000000000000000000000000000000000000000000000000000000040000000000000000000000000000000000000000000000000000000000000000000000000000000000000800000000000000000000000000000000000",
      "type": "0x2",
      "transactionHash": "0xcf95301bf1c1a434ccb76f8b2377f4ca5e791a220e2025ab306028d85d0470e5",
      "transactionIndex": "0x0",
      "blockHash": "0xb16a7d1669d7993ea5f2dbdbf08e27b2d64d66c24ac84003de4a5c7e4cec4dc9",
      "blockNumber": "0x27",
      "gasUsed": "0x15706",
      "effectiveGasPrice": "0x64fc3e",
      "blobGasPrice": "0x1",
      "from": "0x3c44cdddb6a900fa2b585dd299e03d12fa4293bc",
      "to": "0x5fbdb2315678afecb367f032d93f642f64180aa3",
      "contractAddress": null
    },
    {
      "status": "0x1",
      "cumulativeGasUsed": "0x1a4ce",
      "logs": [
        {
          "address": "0x5fbdb2315678afecb367f032d93f642f64180aa3",
          "topics": [
            "0x6018ad64562efd93d22d748684bd9aab8870d294413f37b6bfdca1b8cab1fd06"
          ],
          "data": "0x0000000000000000000000003c44cdddb6a900fa2b585dd299e03d12fa4293bc00000000000000000000000000000000000000000000000000000000000000070000000000000000000000000000000000000000000000000de0b6b3a76400000000000000000000000000003c44cdddb6a900fa2b585dd299e03d12fa4293bc00000000000000000000000000000000000000000000000000000000000000010000000000000000000000000000000000000000000000000000000068b59fd9",
          "blockHash": "0x141102fd603172b013c494ac30caaf0da6ad44ae4e0196937a1fd2804370e914",
          "blockNumber": "0x28",
          "blockTimestamp": "0x68b59fd9",
          "transactionHash": "0xffad2ac65bc0f53a247fd88f32700debb29988db156fe81b9f4a620f8f6f7cd2",
          "transactionIndex": "0x0",
          "logIndex": "0x0",
          "removed": false
        }
      ],
      "logsBloom": "0x00000000000000000001000000000000000000000000000000000000000000000000000000000000000000000000000000000000000000000000000000000000000000000000000000000000000000000000000000000000000000000000000000000040000000000000000000000000000000000000000000000000000000000000010000000000000000000000000000000000000000000000000200000000000000000000000000000000000000000000000000000000000000000000000000000040000000000000000000000000000000000000000000000000000000000000000000000000000000000000800000000000000000000000000000000000",
      "type": "0x2",
      "transactionHash": "0xffad2ac65bc0f53a247fd88f32700debb29988db156fe81b9f4a620f8f6f7cd2",
      "transactionIndex": "0x0",
      "blockHash": "0x141102fd603172b013c494ac30caaf0da6ad44ae4e0196937a1fd2804370e914",
      "blockNumber": "0x28",
      "gasUsed": "0x1a4ce",
      "effectiveGasPrice": "0x586fa2",
      "blobGasPrice": "0x1",
      "from": "0x3c44cdddb6a900fa2b585dd299e03d12fa4293bc",
      "to": "0x5fbdb2315678afecb367f032d93f642f64180aa3",
      "contractAddress": null
    },
    {
      "status": "0x1",
      "cumulativeGasUsed": "0x1a4ce",
      "logs": [
        {
          "address": "0x5fbdb2315678afecb367f032d93f642f64180aa3",
          "topics": [
            "0x6018ad64562efd93d22d748684bd9aab8870d294413f37b6bfdca1b8cab1fd06"
          ],
          "data": "0x0000000000000000000000003c44cdddb6a900fa2b585dd299e03d12fa4293bc00000000000000000000000000000000000000000000000000000000000000080000000000000000000000000000000000000000000000001bc16d674ec800000000000000000000000000003c44cdddb6a900fa2b585dd299e03d12fa4293bc00000000000000000000000000000000000000000000000000000000000000020000000000000000000000000000000000000000000000000000000068b59fd9",
          "blockHash": "0xd1c3b62a244ac3010df79fd347ea71fe71bfe325c4f0cb8443537c7596103979",
          "blockNumber": "0x29",
          "blockTimestamp": "0x68b59fd9",
          "transactionHash": "0x5b7c62ef0191f163e80b07182ce73a878d7e4aee14dbbfbbca7a78d2f0b2edaf",
          "transactionIndex": "0x0",
          "logIndex": "0x0",
          "removed": false
        }
      ],
      "logsBloom": "0x00000000000000000001000000000000000000000000000000000000000000000000000000000000000000000000000000000000000000000000000000000000000000000000000000000000000000000000000000000000000000000000000000000040000000000000000000000000000000000000000000000000000000000000010000000000000000000000000000000000000000000000000200000000000000000000000000000000000000000000000000000000000000000000000000000040000000000000000000000000000000000000000000000000000000000000000000000000000000000000800000000000000000000000000000000000",
      "type": "0x2",
      "transactionHash": "0x5b7c62ef0191f163e80b07182ce73a878d7e4aee14dbbfbbca7a78d2f0b2edaf",
      "transactionIndex": "0x0",
      "blockHash": "0xd1c3b62a244ac3010df79fd347ea71fe71bfe325c4f0cb8443537c7596103979",
      "blockNumber": "0x29",
      "gasUsed": "0x1a4ce",
      "effectiveGasPrice": "0x4d7601",
      "blobGasPrice": "0x1",
      "from": "0x3c44cdddb6a900fa2b585dd299e03d12fa4293bc",
      "to": "0x5fbdb2315678afecb367f032d93f642f64180aa3",
      "contractAddress": null
    },
    {
      "status": "0x1",
      "cumulativeGasUsed": "0x15706",
      "logs": [
        {
          "address": "0x5fbdb2315678afecb367f032d93f642f64180aa3",
          "topics": [
            "0x6018ad64562efd93d22d748684bd9aab8870d294413f37b6bfdca1b8cab1fd06"
          ],
          "data": "0x00000000000000000000000090f79bf6eb2c4f870365e785982e1f101e93b90600000000000000000000000000000000000000000000000000000000000000060000000000000000000000000000000000000000000000001bc16d674ec800000000000000000000000000003c44cdddb6a900fa2b585dd299e03d12fa4293bc00000000000000000000000000000000000000000000000000000000000000000000000000000000000000000000000000000000000000000000000068b59fda",
          "blockHash": "0x52eaa6f65f489b072a1e701faea5fc70225eb8c169c86e52b42e9ed37004caff",
          "blockNumber": "0x2a",
          "blockTimestamp": "0x68b59fda",
          "transactionHash": "0x03723497bd7887b06a89e30354dabd3d4fe72f3b3464e18181ee5f6c88b4c1ed",
          "transactionIndex": "0x0",
          "logIndex": "0x0",
          "removed": false
        }
      ],
      "logsBloom": "0x00000000000000000001000000000000000000000000000000000000000000000000000000000000000000000000000000000000000000000000000000000000000000000000000000000000000000000000000000000000000000000000000000000040000000000000000000000000000000000000000000000000000000000000010000000000000000000000000000000000000000000000000200000000000000000000000000000000000000000000000000000000000000000000000000000040000000000000000000000000000000000000000000000000000000000000000000000000000000000000800000000000000000000000000000000000",
      "type": "0x2",
      "transactionHash": "0x03723497bd7887b06a89e30354dabd3d4fe72f3b3464e18181ee5f6c88b4c1ed",
      "transactionIndex": "0x0",
      "blockHash": "0x52eaa6f65f489b072a1e701faea5fc70225eb8c169c86e52b42e9ed37004caff",
      "blockNumber": "0x2a",
      "gasUsed": "0x15706",
      "effectiveGasPrice": "0x43d90f",
      "blobGasPrice": "0x1",
      "from": "0x90f79bf6eb2c4f870365e785982e1f101e93b906",
      "to": "0x5fbdb2315678afecb367f032d93f642f64180aa3",
      "contractAddress": null
    },
    {
      "status": "0x1",
      "cumulativeGasUsed": "0x1a4ce",
      "logs": [
        {
          "address": "0x5fbdb2315678afecb367f032d93f642f64180aa3",
          "topics": [
            "0x6018ad64562efd93d22d748684bd9aab8870d294413f37b6bfdca1b8cab1fd06"
          ],
          "data": "0x00000000000000000000000090f79bf6eb2c4f870365e785982e1f101e93b90600000000000000000000000000000000000000000000000000000000000000070000000000000000000000000000000000000000000000000de0b6b3a76400000000000000000000000000003c44cdddb6a900fa2b585dd299e03d12fa4293bc00000000000000000000000000000000000000000000000000000000000000010000000000000000000000000000000000000000000000000000000068b59fda",
          "blockHash": "0xa876c3ac717ccf428cd48b323012da453ba45e521c9a8926ca936df8e475dfe8",
          "blockNumber": "0x2b",
          "blockTimestamp": "0x68b59fda",
          "transactionHash": "0x831b86f43fab468e31c5317fa50d209e71cb1d08e98229a8681ae14b5b2bef57",
          "transactionIndex": "0x0",
          "logIndex": "0x0",
          "removed": false
        }
      ],
      "logsBloom": "0x00000000000000000001000000000000000000000000000000000000000000000000000000000000000000000000000000000000000000000000000000000000000000000000000000000000000000000000000000000000000000000000000000000040000000000000000000000000000000000000000000000000000000000000010000000000000000000000000000000000000000000000000200000000000000000000000000000000000000000000000000000000000000000000000000000040000000000000000000000000000000000000000000000000000000000000000000000000000000000000800000000000000000000000000000000000",
      "type": "0x2",
      "transactionHash": "0x831b86f43fab468e31c5317fa50d209e71cb1d08e98229a8681ae14b5b2bef57",
      "transactionIndex": "0x0",
      "blockHash": "0xa876c3ac717ccf428cd48b323012da453ba45e521c9a8926ca936df8e475dfe8",
      "blockNumber": "0x2b",
      "gasUsed": "0x1a4ce",
      "effectiveGasPrice": "0x3b6aa4",
      "blobGasPrice": "0x1",
      "from": "0x90f79bf6eb2c4f870365e785982e1f101e93b906",
      "to": "0x5fbdb2315678afecb367f032d93f642f64180aa3",
      "contractAddress": null
    },
    {
      "status": "0x1",
      "cumulativeGasUsed": "0x1a4ce",
      "logs": [
        {
          "address": "0x5fbdb2315678afecb367f032d93f642f64180aa3",
          "topics": [
            "0x6018ad64562efd93d22d748684bd9aab8870d294413f37b6bfdca1b8cab1fd06"
          ],
          "data": "0x00000000000000000000000090f79bf6eb2c4f870365e785982e1f101e93b90600000000000000000000000000000000000000000000000000000000000000080000000000000000000000000000000000000000000000001bc16d674ec800000000000000000000000000003c44cdddb6a900fa2b585dd299e03d12fa4293bc00000000000000000000000000000000000000000000000000000000000000020000000000000000000000000000000000000000000000000000000068b59fda",
          "blockHash": "0xf6539e3e20d6a147614dc037306c4824bc51e812df1a003b6e9b3a4936dd611c",
          "blockNumber": "0x2c",
          "blockTimestamp": "0x68b59fda",
          "transactionHash": "0x22f0cc9678ab11bf8cf7d430b2990e65d8ae2d34c055e184bc4d3d890a2dd861",
          "transactionIndex": "0x0",
          "logIndex": "0x0",
          "removed": false
        }
      ],
      "logsBloom": "0x00000000000000000001000000000000000000000000000000000000000000000000000000000000000000000000000000000000000000000000000000000000000000000000000000000000000000000000000000000000000000000000000000000040000000000000000000000000000000000000000000000000000000000000010000000000000000000000000000000000000000000000000200000000000000000000000000000000000000000000000000000000000000000000000000000040000000000000000000000000000000000000000000000000000000000000000000000000000000000000800000000000000000000000000000000000",
      "type": "0x2",
      "transactionHash": "0x22f0cc9678ab11bf8cf7d430b2990e65d8ae2d34c055e184bc4d3d890a2dd861",
      "transactionIndex": "0x0",
      "blockHash": "0xf6539e3e20d6a147614dc037306c4824bc51e812df1a003b6e9b3a4936dd611c",
      "blockNumber": "0x2c",
      "gasUsed": "0x1a4ce",
      "effectiveGasPrice": "0x340af8",
      "blobGasPrice": "0x1",
      "from": "0x90f79bf6eb2c4f870365e785982e1f101e93b906",
      "to": "0x5fbdb2315678afecb367f032d93f642f64180aa3",
      "contractAddress": null
    },
    {
      "status": "0x1",
      "cumulativeGasUsed": "0x15706",
      "logs": [
        {
          "address": "0x5fbdb2315678afecb367f032d93f642f64180aa3",
          "topics": [
            "0x6018ad64562efd93d22d748684bd9aab8870d294413f37b6bfdca1b8cab1fd06"
          ],
          "data": "0x00000000000000000000000015d34aaf54267db7d7c367839aaf71a00a2c6a6500000000000000000000000000000000000000000000000000000000000000060000000000000000000000000000000000000000000000001bc16d674ec800000000000000000000000000003c44cdddb6a900fa2b585dd299e03d12fa4293bc00000000000000000000000000000000000000000000000000000000000000000000000000000000000000000000000000000000000000000000000068b59fda",
          "blockHash": "0xdc88370c2cd840dd4ccd2af2e61e3bcf3934f68846bc7c23dbd7fa8866ad8f59",
          "blockNumber": "0x2d",
          "blockTimestamp": "0x68b59fda",
          "transactionHash": "0x891fa9289a2d4aecdf5ec153d5d428abae2e875c23e18772679b05225fefccc3",
          "transactionIndex": "0x0",
          "logIndex": "0x0",
          "removed": false
        }
      ],
      "logsBloom": "0x00000000000000000001000000000000000000000000000000000000000000000000000000000000000000000000000000000000000000000000000000000000000000000000000000000000000000000000000000000000000000000000000000000040000000000000000000000000000000000000000000000000000000000000010000000000000000000000000000000000000000000000000200000000000000000000000000000000000000000000000000000000000000000000000000000040000000000000000000000000000000000000000000000000000000000000000000000000000000000000800000000000000000000000000000000000",
      "type": "0x2",
      "transactionHash": "0x891fa9289a2d4aecdf5ec153d5d428abae2e875c23e18772679b05225fefccc3",
      "transactionIndex": "0x0",
      "blockHash": "0xdc88370c2cd840dd4ccd2af2e61e3bcf3934f68846bc7c23dbd7fa8866ad8f59",
      "blockNumber": "0x2d",
      "gasUsed": "0x15706",
      "effectiveGasPrice": "0x2d958f",
      "blobGasPrice": "0x1",
      "from": "0x15d34aaf54267db7d7c367839aaf71a00a2c6a65",
      "to": "0x5fbdb2315678afecb367f032d93f642f64180aa3",
      "contractAddress": null
    },
    {
      "status": "0x1",
      "cumulativeGasUsed": "0x1a4ce",
      "logs": [
        {
          "address": "0x5fbdb2315678afecb367f032d93f642f64180aa3",
          "topics": [
            "0x6018ad64562efd93d22d748684bd9aab8870d294413f37b6bfdca1b8cab1fd06"
          ],
          "data": "0x00000000000000000000000015d34aaf54267db7d7c367839aaf71a00a2c6a6500000000000000000000000000000000000000000000000000000000000000070000000000000000000000000000000000000000000000000de0b6b3a76400000000000000000000000000003c44cdddb6a900fa2b585dd299e03d12fa4293bc00000000000000000000000000000000000000000000000000000000000000010000000000000000000000000000000000000000000000000000000068b59fda",
          "blockHash": "0x1737cf56fb07ee2cc985e3205df9c62feeb4acb10aee8b5db1d1867c3acb3fd0",
          "blockNumber": "0x2e",
          "blockTimestamp": "0x68b59fda",
          "transactionHash": "0x551803480645a181a06e279cab9943c24e7116321f3ac485a49c3571878210c9",
          "transactionIndex": "0x0",
          "logIndex": "0x0",
          "removed": false
        }
      ],
      "logsBloom": "0x00000000000000000001000000000000000000000000000000000000000000000000000000000000000000000000000000000000000000000000000000000000000000000000000000000000000000000000000000000000000000000000000000000040000000000000000000000000000000000000000000000000000000000000010000000000000000000000000000000000000000000000000200000000000000000000000000000000000000000000000000000000000000000000000000000040000000000000000000000000000000000000000000000000000000000000000000000000000000000000800000000000000000000000000000000000",
      "type": "0x2",
      "transactionHash": "0x551803480645a181a06e279cab9943c24e7116321f3ac485a49c3571878210c9",
      "transactionIndex": "0x0",
      "blockHash": "0x1737cf56fb07ee2cc985e3205df9c62feeb4acb10aee8b5db1d1867c3acb3fd0",
      "blockNumber": "0x2e",
      "gasUsed": "0x1a4ce",
      "effectiveGasPrice": "0x27eb68",
      "blobGasPrice": "0x1",
      "from": "0x15d34aaf54267db7d7c367839aaf71a00a2c6a65",
      "to": "0x5fbdb2315678afecb367f032d93f642f64180aa3",
      "contractAddress": null
    },
    {
      "status": "0x1",
      "cumulativeGasUsed": "0x1a4ce",
      "logs": [
        {
          "address": "0x5fbdb2315678afecb367f032d93f642f64180aa3",
          "topics": [
            "0x6018ad64562efd93d22d748684bd9aab8870d294413f37b6bfdca1b8cab1fd06"
          ],
          "data": "0x00000000000000000000000015d34aaf54267db7d7c367839aaf71a00a2c6a6500000000000000000000000000000000000000000000000000000000000000080000000000000000000000000000000000000000000000001bc16d674ec800000000000000000000000000003c44cdddb6a900fa2b585dd299e03d12fa4293bc00000000000000000000000000000000000000000000000000000000000000020000000000000000000000000000000000000000000000000000000068b59fda",
          "blockHash": "0xd92369f3ab6ab9832e056e17927ae9aa23bc80d112b9cd8c01ef3a834617fc55",
          "blockNumber": "0x2f",
          "blockTimestamp": "0x68b59fda",
          "transactionHash": "0x41e2598adfa61476c493e319df39cbadab2ab230f42ef813d0d232e194bc0707",
          "transactionIndex": "0x0",
          "logIndex": "0x0",
          "removed": false
        }
      ],
      "logsBloom": "0x00000000000000000001000000000000000000000000000000000000000000000000000000000000000000000000000000000000000000000000000000000000000000000000000000000000000000000000000000000000000000000000000000000040000000000000000000000000000000000000000000000000000000000000010000000000000000000000000000000000000000000000000200000000000000000000000000000000000000000000000000000000000000000000000000000040000000000000000000000000000000000000000000000000000000000000000000000000000000000000800000000000000000000000000000000000",
      "type": "0x2",
      "transactionHash": "0x41e2598adfa61476c493e319df39cbadab2ab230f42ef813d0d232e194bc0707",
      "transactionIndex": "0x0",
      "blockHash": "0xd92369f3ab6ab9832e056e17927ae9aa23bc80d112b9cd8c01ef3a834617fc55",
      "blockNumber": "0x2f",
      "gasUsed": "0x1a4ce",
      "effectiveGasPrice": "0x22f728",
      "blobGasPrice": "0x1",
      "from": "0x15d34aaf54267db7d7c367839aaf71a00a2c6a65",
      "to": "0x5fbdb2315678afecb367f032d93f642f64180aa3",
      "contractAddress": null
    }
  ],
  "libraries": [],
  "pending": [],
  "returns": {},
  "timestamp": 1756733402,
  "chain": 1,
  "commit": "c82adac"
}